:020000040800F2
:1000000000000220B12E0008D5020008D702000827
:10001000D9020008DB020008DD0200080000000031
:10002000000000000000000000000000DF020008E7
:10003000E102000800000000E3020008E5020008F9
:10004000012F0008012F0008012F0008012F0008D0
:10005000012F0008012F0008012F0008012F0008C0
:10006000012F0008012F0008012F0008012F0008B0
:10007000012F0008012F0008012F0008012F0008A0
:10008000012F0008012F0008012F0008012F000890
:10009000012F0008012F0008012F0008012F000880
:1000A000012F0008012F0008012F0008012F000870
:1000B000012F0008012F0008012F0008012F000860
:1000C000012F0008012F0008012F0008012F000850
:1000D000012F0008012F0008012F0008012F000840
:1000E000012F0008012F0008012F0008012F000830
:1000F000012F0008012F0008012F0008012F000820
:10010000012F0008012F0008012F0008012F00080F
:10011000012F0008012F0008012F0008012F0008FF
:10012000012F0008012F0008012F0008012F0008EF
:10013000012F0008012F0008012F0008012F0008DF
:10014000012F0008012F0008012F0008ED02000810
:10015000012F0008012F0008012F0008012F0008BF
:10016000012F0008012F0008012F0008012F0008AF
:10017000012F0008012F0008012F000800000000D7
:04018000012F000843
:1001840010B5054C237833B9044B13B10448AFF3CD
:1001940000800123237010BDE00100200000000056
:1001A4007C31000808B5034B1BB103490348AFF386
:1001B400008008BD00000000E40100207C3100083C
:1001C40082B00A4B1A6B42F080021A631A6B02F077
:1001D40080020192019A1A6B42F001021A631B6BAE
:1001E40003F001030093009B02B070470038024003
:1001F40072B6FEE708B52A4A136823F00F0343F0EA
:1002040003031360264B1B6803F00F03032BF9D180
:10021400244A136843F480331360224B1B6813F49D
:10022400003FFAD01F4B5A681F4911401F4A0A4326
:100234005A605A681E4911401E4A0A435A601A6895
:1002440042F080721A60174B1B6813F0007FFAD0DB
:10025400144B9A6822F0F0029A609A6822F4E052F1
:1002640042F4A0529A609A6822F4604242F4004236
:100274009A609A6822F0030242F002029A60094BE3
:100284009B6803F00C03082BF9D10B4801F0CCFD5B
:100294000F2001F0CFFD00B908BDFFF7A9FF00BF93
:1002A400003C0240003802400080BCFF1430400093
:1002B4000080BFF014304005000E270708B501F098
:1002C400DFFDFFF797FFFFF77BFF00F031F8FEE754
:1002D400FEE7FEE7FEE7FEE7FEE77047704770477C
:1002E40008B501F0E7FD08BD08B5024800F03AFC86
:1002F40008BD00BFC016002082B0002100910B4B46
:100304005A6C42F480425A645A6C02F4804200925D
:10031400009A01911A6C42F080521A641B6C03F02B
:1003240080530193019B02B0704700BF0038024024
:1003340008B500220F49104801F05BFF70B90F495E
:100344000D4801F06DFF60B90D490B4802F081FDC5
:1003540050B9094801F06BFF48B908BDFFF748FFE1
:10036400EDE7FFF745FFEFE7FFF742FFF1E7FFF7A0
:100374003FFFF2E700000020FC0100206C00002099
:100384005000002012230B80004870471C000020FE
:1003940004230B8000487047300000200023934260
:1003A4001ED200B510E00CF1370C01F813C00001A7
:1003B4004FEA430C0CF1010C4FF0000E01F80CE075
:1003C4000133DBB2934209D24FEA107CB0F1204FE3
:1003D400E9D20CF1300C01F813C0E8E75DF804FB36
:1003E4007047000038B50B4BD3F8100AD3F8144A01
:1003F400D3F8183AC01800D138BD074D0822A91CFB
:10040400FFF7CCFF042205F112012046FFF7C6FFD7
:10041400F2E700BF0070FF1F3400002008B51A2364
:100424000B80FFF7DFFF014808BD00BF3400002048
:1004340008B50A4628B90549054802F060FB034897
:1004440008BD0249024802F05AFBF8E7C004002044
:100454009431000810B50A46034C2146034802F0C3
:100464004EFB204610BD00BFC0040020AC31000884
:1004740008B50A4628B90549054802F040FB034877
:1004840008BD0249024802F03AFBF8E7C004002024
:10049400C031000808B50A4628B90549054802F0E4
:1004A4002EFB034808BD0249024802F028FBF8E786
:1004B400C0040020CC3100080020704700207047A1
:1004C40010B50146044C204602F0D2FC204602F04E
:1004D400D5FC002010BD00BFFC01002010B5064C67
:1004E40000220649204602F0BBFC0549204602F0E2
:1004F400BFFC002010BD00BFFC010020C00E002086
:10050400C006002030B589B00023039304930593FB
:10051400069307930368B3F1A04F01D009B030BD2F
:1005240000250195164C236B43F001032363236BD1
:1005340003F001030193019B4FF4C053039302237F
:100544000493032306930A23079303A90D4801F098
:100554004BFD636B43F0800363630295636C43F468
:1005640080436364636C03F480430293029B2A46D2
:100574002946432001F0DEFC432001F013FDCDE7C2
:10058400003802400000024008B500F57171D0F84F
:10059400FC0301F064FE08BD08B5C1EBC10300EB28
:1005A4008303D3F80822D0F8FC0301F085FE08BDCC
:1005B40008B5C1EBC10300EB83039A6CD0F8FC03CC
:1005C40001F0C0FE08BD08B5D0F8FC0301F061FFDE
:1005D40008BD10B50446C3683BB1022B01D101210B
:1005E40004E0FFF705FE012100E00021D4F8FC033C
:1005F40001F038FFD4F8FC0301F00CFF10BD00003B
:1006040010B50446D0F8FC0301F02FFF2268D2F89D
:10061400003E43F00103C2F8003E236A23B1034ABB
:10062400136943F00603136110BD00BF00ED00E041
:1006340008B5D0F8FC0301F021FF08BD08B5D0F8D7
:10064400FC0301F036FF08BD08B5D0F8FC0301F047
:100654002EFF08BD08B5D0F8FC0301F02CFF08BD3F
:1006640008B5D0F8FC0301F028FF08BD02780AB1F0
:100674000020704710B503461448C0F8FC33C3F893
:10068400C0024FF0A0430360042343600222C2600F
:10069400002303618261C3610362C362036300F0E8
:1006A40012F980B9094C8021204600F0A0F84022BC
:1006B4000021204600F076F880220121204600F037
:1006C40071F8002010BDFFF793FDEBE7C016002082
:1006D400D0F8C03211F0800F08D101F07F01C1EBD6
:1006E400C10103EB810191F8FE01704701F07F0124
:1006F400C1EBC10103EB810191F83E00704708B5DD
:10070400D0F8C00200F01FFD08BD022805D8DFE8BC
:1007140000F005040200012070470220704708B56C
:10072400D0F8C00200F066F9FFF7EFFF08BD08B586
:1007340094461A466346D0F8C00200F057FCFFF70F
:10074400E4FF08BD08B5D0F8C00200F094FCFFF740
:10075400DCFF08BD08B5D0F8C00200F02CFDFFF79F
:10076400D4FF08BD08B5D0F8C00200F068FDFFF75B
:10077400CCFF08BD08B5D0F8C00200F023FCFFF799
:10078400C4FF08BD08B5D0F8C00200F0E5FCFFF7CF
:10079400BCFF08BD08B5D0F8C00200F0A5FCFFF707
:1007A400B4FF08BD10B40468606A29B940EA024085
:1007B400A062002010BC70478C46A36A00EB134073
:1007C400002308E003F1400104EB8101496800EBD8
:1007D40011400133DBB20CF1FF318B42F2D340EA1A
:1007E40002400CF13F0104EB81014860E1E703683A
:1007F4005962002070472DE9F04383B0D0F800809F
:10080400C1EBC10300EB83035A6D1B6D9A4254D8AC
:1008140007460C469B1AC1EBC10200EB8202526CE4
:100824009A4200D31A4602F103094FEA990915E0E6
:1008340006F103094FEA9909C4EBC40507EB8505E2
:10084400A96C3B7C0093B3B2E2B2404601F064F879
:10085400AB6C3344AB646B6D33446B6508EB44138E
:1008640003F510639B699BB24B4512D3C4EBC402DE
:1008740007EB8202516D136D99420AD24BB15B1A98
:10088400C4EBC40207EB8202566C9E42D0D31E46D0
:10089400CEE7C4EBC40007EB80073A6D7B6D9A4248
:1008A4000FD804F00F040123A340D8F8344824EAF5
:1008B4000304C8F83448002000E0012003B0BDE878
:1008C400F0830020FAE770B58AB0002800F0908029
:1008D4000546046890F8BD333BB3032385F8BD3364
:1008E400E36B13F4807F01D100232B61286800F0AF
:1008F400B5FD2C4654F8106BEC460FCCACE80F0059
:100904000FCCACE80F0094E803008CE803002B1D27
:100914000ECB304600F0ECFC044658B1022385F8B7
:10092400BD33012420460AB070BD80F8BC33FFF704
:10093400E9FDD2E70021286801F007FA234616E012
:10094400C3EBC30205EB8202012182F83D1082F859
:100954003C30A2F84230002182F83F105164916487
:10096400C3EBC30205EB820211650133DBB2696894
:100974008B42E5D316E0C4EBC40305EB83030022EA
:1009840083F8FD2183F8FC4183F8FF21C3F8042296
:10099400C3F80822C4EBC40305EB8303C3F8102295
:1009A4000134E4B2A142E6D82C4654F8106BEC466C
:1009B4000FCCACE80F000FCCACE80F0094E80300B8
:1009C4008CE803002B1D0ECB304600F07BFD044663
:1009D40020B1022385F8BD330124A3E7002385F861
:1009E4003830012385F8BD33286801F06CF999E7A4
:1009F400012497E790F8BC33012B0ED010B50446C0
:100A0400012380F8BC33006800F022FD206801F067
:100A14004CF9002084F8BC0310BD0220704700008C
:100A240070B504460D460068066C00EB411303F5EF
:100A340030639A682169012911D034498E424ED01D
:100A44003DB9C5EBC50304EB8303D3F81032002B87
:100A540056D0E9B22046FFF79FFD002070BD12F08A
:100A6400080F09D02A498E42F7D912F4004FF4D066
:100A74004FF400429A60F0E712F0200F02D02022D7
:100A84009A60EAE712F0280FE7D121498E4206D98D
:100A940012F4004F03D04FF400429A60DDE7C5EB37
:100AA400C50204EB8202D2F804121B69C3F31203D9
:100AB400CB1AC2F81432D2F808320B44C2F8083206
:100AC40015B9D2F8103223B1E9B22046FFF764FD1C
:100AD400C3E704F57172012101F078F9F4E712F427
:100AE400004F03D04FF400429A60B6E712F0200F93
:100AF40001D020229A60E9B22046FFF74DFDACE711
:100B040004F57172002101F061F9A2E70A31544F32
:100B14000A30544F38B5044603681D6C03EB411387
:100B2400D3F8081B0E4A954207D903F5306311F434
:100B3400004F02D04FF400429A602046FFF724FD94
:100B4400074B9D4202D92369012B01D0002038BDF7
:100B540004F571720121206801F038F9F6E700BF4D
:100B64000A30544F2DE9F84F04460568284601F031
:100B7400E8F808B1BDE8F88F0646206801F0B1F83E
:100B84000028F7D0206801F0ACF810F0020F04D070
:100B94002268536903F002035361206801F0A1F84D
:100BA40010F0100F13D02268936923F0100393619F
:100BB4002F6A07F00F08C7F34343022B68D0062BB4
:100BC40000F084802268936943F0100393612068E5
:100BD40001F087F810F4002F40F08A80206801F0BB
:100BE40080F810F4802F40F0CC80206801F079F870
:100BF4000028C0F23681206801F073F810F4006F09
:100C04000AD0D5F8083813F0010F40F03981226872
:100C1400536903F400635361206801F062F810F42F
:100C2400805F40F03181206801F05BF810F4005FD0
:100C340040F08681206801F054F810F0080F40F06D
:100C44009781206801F04DF810F4801F40F09981DD
:100C5400206801F046F810F4001F40F09C812068E1
:100C640001F03FF810F0804F40F09F81206801F0C0
:100C740038F810F0040F3FF47DAF23685D6815F079
:100C8400040F40F09B81226853682B43536071E743
:100C940047F6F0731F4295D04FEA171BC8EBC809FB
:100CA40004EB8909C7F30A12D9F80812284600F0A0
:100CB40067FFCBF30A02D9F808321344C9F80832A3
:100CC400D9F814321A44C9F814227BE7082204F52F
:100CD4007171284600F054FFC7F30A17C8EBC80225
:100CE40004EB8202D2F814321F44C2F8147269E78A
:100CF400206800F0FAFF0746B04616E005EB4813FB
:100D04000122C3F8082B41462046FFF789FE1BE069
:100D140005EB48130822C3F8082B41462046FFF789
:100D2400F9FE14E008F101087F08002F3FF456AFE4
:100D340017F0010FF6D05FFA88F1206800F0E5FFA4
:100D4400814610F0010FD9D119F0080FE0D119F044
:100D5400100F04D005EB48131022C3F8082B19F028
:100D6400200F04D005EB48132022C3F8082B19F4F4
:100D7400005FD7D005EB48134FF40052C3F8082B9B
:100D8400D0E7206800F0B9FF0746B04629E0514695
:100D94002046FFF70DFC19F0080F04D005EB4813AB
:100DA4000822C3F8082919F0100F04D005EB4813E2
:100DB4001022C3F8082919F0400F04D005EB48139A
:100DC4004022C3F8082919F0020F04D005EB481398
:100DD4000222C3F8082919F0800F3DD108F1010857
:100DE4007F08002F3FF401AF17F0010FF6D05FFA30
:100DF40088FA5146206800F091FF814610F0010FF7
:100E0400C9D008F00F03012101FA03F2D5F83438F0
:100E140023EA0203C5F8343805EB4813C3F808196C
:100E240023698B42B3D1C8EBC80304EB8303596C29
:100E34009A6C0A449A64B8F1000FA8D1C8EBC803AD
:100E440004EB83031B6D002BA1D104F57172012106
:100E5400206800F0BBFF9AE741462046FFF7CBFC31
:100E6400BCE7D5F8043823F00103C5F8043820465C
:100E7400FFF7DEFB2268536903F000435361BAE6CF
:100E84002046FFF7BDFBC2E605F500677B6823F04B
:100E940001037B601021206800F0E6FA20E005EBF6
:100EA40046134FF67F31C3F80819D3F8002922F40A
:100EB4000012C3F80029D3F8002942F00062C3F8F5
:100EC4000029C3F8081BD3F8002B22F40012C3F83E
:100ED400002BD3F8002B42F00062C3F8002B01363C
:100EE4006368B342DBD8FB6943F00113FB61236BF6
:100EF400DBB1D7F8843043F00B03C7F884307B6C44
:100F040043F00B037B64D5F8003823F4FE63C5F883
:100F1400003804F57172217C206800F057FF2268C4
:100F2400536903F4805353617DE67B6943F40053B2
:100F340043F02B037B613B6943F00B033B61E2E726
:100F4400206800F033FF206800F084FBE06025682F
:100F540000F0D8FF0146227B284600F007FA20461D
:100F6400FFF737FB2268536903F40053536161E6CA
:100F74002046FFF728FB2268536903F008035361F6
:100F84005FE600212046FFF75FFB2268536903F404
:100F9400801353615CE600212046FFF74FFB226873
:100FA400536903F40013536159E62046FFF752FBDB
:100FB4002268536903F08043536157E62046FFF7E4
:100FC4004FFB60E690F8BC33012B0DD010B50446FE
:100FD400012380F8BC3380F83810006800F055FE17
:100FE400002084F8BC0310BD0220704738B50546C4
:100FF4008C4611F0800F29D101F00F0ECEEBCE04F8
:10100400A40004F5FC740444211DCEEBCE0E00EBC9
:101014008E0E00208EF8FD010CF00F0C81F800C03C
:101024008A60CB704A780AB1A1F806C0022B1DD0A1
:1010340095F8BC33012B1CD0012385F8BC332868F8
:1010440000F019FB002085F8BC0338BD01F00F0047
:10105400C0EBC0018900383129440431C0EBC00021
:1010640005EB8000012480F83D40D5E700230B7197
:10107400DEE70220E9E710B504460A4611F0800FC6
:1010840020D101F00F00C0EBC0039B0003F5FC73FB
:101094002344191DC0EBC00004EB8000002380F83A
:1010A400FD3102F00F020A7094F8BC33012B19D001
:1010B400012384F8BC33206800F02CFB002084F862
:1010C400BC0310BD01F00F00C0EBC0039B0038331C
:1010D4002344191DC0EBC00004EB8000012380F8F9
:1010E4003D30DEE70220ECE710B501F00F04C4EB5D
:1010F400C401890001F5FC7101440431C4EBC40C42
:1011040000EB8C0CCCF80822CCF810320023CCF87D
:1011140014328CF8FD318CF8FC410369012B06D0A4
:1011240064B9DAB2006800F065FB002010BDC4EBBE
:10113400C40C00EB8C0CCCF80C22F1E7DAB200689A
:1011440000F002FCF1E701F00F01C1EBC10100EB7B
:101154008101D1F81402704710B501F00F04C4EBFB
:10116400C4018900383101440431C4EBC40C00EBE0
:101174008C0CCCF84820CCF850300023CCF85430F8
:1011840001238CF83D308CF83C400369012B06D0D8
:1011940064B9DAB2006800F02DFB002010BDC4EB86
:1011A400C40C00EB8C0CCCF84C20F1E7DAB20068EC
:1011B40000F0CAFBF1E738B501F00F05426895422B
:1011C40039D804460B4611F0800F1FD1C1EBC10181
:1011D400890001F5FC7101440431C3EBC30300EB46
:1011E4008303002283F8FD2101238B700D7094F892
:1011F400BC33012B21D0012384F8BC33206800F0D8
:10120400E9FC8DB1002084F8BC0338BDC5EBC501F1
:101214008900383101440431C5EBC50300EB830375
:10122400012283F83D20DFE704F57172217C2068F8
:1012340000F0CCFDE6E70120E7E70220E5E701F056
:101244000F034268934231D810B5044611F0800F61
:101254001ED1C3EBC301890001F5FC7101440431C3
:10126400C3EBC30200EB8202002082F8FD010022DE
:101274008A700B7094F8BC33012B19D0012384F8C5
:10128400BC33206800F0D3FC002084F8BC0310BDFC
:10129400C3EBC3018900383101440431C3EBC302F9
:1012A40000EB8202012082F83D00E0E70120704754
:1012B4000220ECE7002301330C4A934211D802695F
:1012C400002AF8DA036943F00103036100230133C0
:1012D400064A934207D8026912F0010FF7D10020A1
:1012E4007047032070470320704700BF400D030080
:1012F40084B010B5044603A880E80E00089B012BB7
:101304001FD1A36B23F48033A363E36823F4840322
:1013140023F04003E360E36823F44013E3600F9B8E
:10132400012B09D02046FFF7C5FF069B012B14D0E3
:10133400BDE8104004B07047E36843F48013E360F1
:10134400F0E7E36843F04003E3602046FFF7B2FFB1
:10135400A36B43F48033A363E7E7A36843F0060376
:10136400A360A36843F02003A360E1E7022A0AD044
:101374000921C26822F47052C260C36843EA81231F
:10138400C36000207047234B0B44234A93422FD958
:10139400224B0B44224A93422CD9A1F57403A3F5A2
:1013A4001053204A934227D9A1F18373A3F5E7434D
:1013B4001D4A934222D31D4B0B441D4A93421FD90D
:1013C4001C4B0B441C4A93421CD31C4B0B441C4A1D
:1013D400934219D3A1F1B773A3F55853194A934211
:1013E40014D3194B0B44194A934211D20721C0E775
:1013F4000F21BEE70E21BCE70D21BAE70C21B8E7A7
:101404000B21B6E70A21B4E70921B2E70821B0E7C6
:101414000621AEE7405327FFFF340C00401E1BFF9C
:101424003F420F007F4F120020D6130060B6E5FE46
:101434005FE3160000D3CEFE40771B00C05BB3FE13
:10144400C091210020753800E05459FEE09C410011
:10145400836843F00103836000207047836823F0AE
:101464000103836000207047890141F0200101617C
:1014740000230133054A934205D8026912F0200F74
:10148400F7D1002070470320704700BF400D0300D0
:101494001023036100230133054A934205D80269EE
:1014A40012F0100FF7D1002070470320704700BFDF
:1014B400400D0300D0F800381943C0F8001800208C
:1014C4007047000084B02DE9F041044607A880E885
:1014D4000E00002306E003F1400204EB8202002127
:1014E400516001330E2BF6D9119F27BBD4F8043871
:1014F40043F00203C4F80438A36B43F40013A3635A
:10150400A36B23F40023A363A36B23F48023A363BB
:101514000023C4F8003E04F50065D4F80038C4F88C
:1015240000380C9B012B14D1099B6BB90021204678
:10153400FFF7C0FF11E0A36B23F40013A363A36BB5
:1015440043F40023A363E3E701212046FFF7B2FF3E
:1015540003E003212046FFF7ADFF10212046FFF7EB
:1015640083FF804608B14FF001082046FFF790FF43
:1015740008B14FF0010800232B616B61EB610AE0B5
:10158400C3B94FF00060C2F8000900220A614FF6A7
:101594007F328A6001330799994210D904EB4312D0
:1015A40002F51061D2F800090028E9DB0020C2F836
:1015B4000009EAE74FF09040C2F80009E5E700238C
:1015C4000AE0C3B14FF0904CC2F800CB0022026194
:1015D4004FF67F3282600133994211D904EB4312F2
:1015E40002F53060D2F8006B002EEADB4FF0000CFD
:1015F400C2F800CBEAE74FF0006CC2F800CBE5E795
:101604002B6923F480732B610023A3616FF0804363
:1016140063610A9B1BB9A36943F01003A361A26928
:101624000B4B1343A3610D9B1BB1A36943F0080348
:10163400A361012F04D04046BDE8F04104B07047D7
:10164400A36943F0804343F00403A361F3E700BFBD
:1016540000383C80D0F8083813F0060307D0022B7A
:1016640007D0062B01D00F207047022070470020BE
:1016740070470220704710B591F800C04B78012BD9
:1016840023D000F5006ED0F81C380CF00F040122B2
:10169400A24043EA0243C0F81C3800EB4C10D0F8D7
:1016A400003B13F4004F0ED1D0F8003B8A68C2F31C
:1016B4000A02C97842EA8142134343F0805343F457
:1016C4000043C0F8003B002010BDD0F81C280CF0EB
:1016D4000F0E03FA0EF39BB21343C0F81C3800EB51
:1016E4004C10D0F8003913F4004FECD1D0F8003985
:1016F4008A68C2F30A02C97842EA814242EA8C5CEF
:1017040043EA0C0343F0805343F40043C0F8003928
:10171400D9E7000030B40B784A78012A26D000EBD0
:101724004313D3F8002B002A52DBD0F83C480A7844
:1017340002F00F024FF0010C0CFA02F224EA02420A
:10174400C0F83C28D0F81C28097801F00F010CFAE5
:1017540001FC22EA0C42C0F81C28D3F8001B234ADF
:101764000A40C3F8002B002030BC704700EB431341
:10177400D3F80029002A1EDBD0F83C580A7802F07E
:101784000F02012404FA02F292B225EA0202C0F81E
:101794003C28D0F81C28097801F00F018C40A4B231
:1017A40022EA0404C0F81C48D3F80019104A0A407D
:1017B400C3F80029D7E7D3F8002942F00062C3F840
:1017C4000029D3F8002942F08042C3F80029D3E766
:1017D400D3F8002B42F00062C3F8002BD3F8002B9F
:1017E40042F08042C3F8002B9FE700BF0078F3EF7C
:1017F400007833EC30B40B784C78012C27D000EB14
:10180400431000F530631C69E40CE4041C611C699A
:1018140024F0FF5424F4C0141C614C690CB18C688E
:101824004C611C6944F400241C611C698D68C5F377
:10183400120C44EA0C041C61012A68D0D0F8003B65
:1018440043F00443C0F8003B002030BC70474C69AF
:101854006CBB00EB4314D4F8105925F0FF5525F464
:10186400C015C4F81059D4F8105945F40025C4F82B
:101874001059D4F81059ED0CED04C4F81059012A8C
:1018840036D000EB4313D3F8002942F00442C3F8E6
:1018940000294B69002BD7D0D0F834380A7802F0ED
:1018A4000F0101228A401343C0F83438CCE700EB1F
:1018B400431404F510642569ED0CED0425612569D4
:1018C40025F0FF5525F4C01525618D68D1F814C0A5
:1018D400AC4500D94D61256945F40025256125698C
:1018E400D1F814C0CCF3120C45EA0C052561C6E707
:1018F4000A691AB100EB4311C1F8142900EB431033
:10190400D0F8002942F00442C0F800299CE7CA68D4
:10191400002A93D05A6191E710B59DF8084084B924
:1019240003334FEA930E4FF0000C08E000EB023350
:1019340003F5805351F8044B1C600CF1010CF44581
:10194400F4D3002010BD000070B582B00B784C7841
:10195400012C33D000EB431303F5306CDCF810405A
:10196400E40CE404CCF81040DCF8104024F0FF54FC
:1019740024F4C014CCF810404C69002C40F0CA8008
:10198400DCF810408D68C5F312052C43CCF81040E8
:10199400DCF8104044F40024CCF81040012A00F094
:1019A400D380CA78012A00F0D680D3F8002B42F005
:1019B4000442C3F8002B002002B070BD4C6984BB04
:1019C40000EB4314D4F8105925F0FF5525F4C01545
:1019D400C4F81059D4F8105945F40025C4F8105926
:1019E400D4F81059ED0CED04C4F81059012A4FD065
:1019F40000EB4313D3F8004944F00444C3F800490E
:101A0400CC78012C6DD04B69002BD4D0D0F834386D
:101A14000A7802F00F0101228A401343C0F83438D7
:101A2400C9E700EB4314D4F81059ED0CED04C4F8E5
:101A34001059D4F8105925F0FF5525F4C015C4F8F1
:101A44001059D4F810598E68D1F814C0B4440CF16C
:101A5400FF3CBCFBF6FC494E06EACC4C45EA0C05BF
:101A6400C4F81059D4F810594E69C6F31206354318
:101A7400C4F8105904F51064CD78012DB6D1256948
:101A840025F0C0452561256945F000552561ADE780
:101A94000A691AB100EB4314C4F81429CA78012A5C
:101AA40008D000EB4313D3F8002942F00442C3F8F2
:101AB400002980E7D0F8082812F4807F08D100EBD1
:101AC4004311D1F8002942F00052C1F80029E8E797
:101AD40000EB4311D1F8002942F08052C1F80029EB
:101AE400DFE7D0F8084814F4807F0CD1D3F800491C
:101AF40044F00054C3F8004900928B8A0A78C968FC
:101B0400FFF70AFF57E7D3F8004944F08054C3F8BD
:101B14000049F1E78D682C44013CB4FBF5F4DCF892
:101B240010501FFA84FE154E06EAC4442543CCF82F
:101B34001050DCF810508C680EFB04F4C4F312044B
:101B44002C43CCF8104029E7CA68002A3FF429AF97
:101B5400CCF8142025E7D0F8082812F4807F06D1A9
:101B6400D3F8002B42F00052C3F8002B1DE7D3F842
:101B7400002B42F08052C3F8002B16E70000F81F38
:101B840000B583B0844608464FEA920E02F0030281
:101B9400002305E00CF58051096840F8041B01336B
:101BA4007345F7D39AB10CF5805CDCF800300193EF
:101BB4004FF0000C5FFA8CF3D900019BCB4000F886
:101BC400013B0CF1010C013A92B2002AF2D103B0AC
:101BD4005DF804FB0B784A78012A14D000EB43101B
:101BE400D0F8002B002A06DB2BB1D0F8003B23F001
:101BF4008043C0F8003BD0F8003B43F40013C0F826
:101C0400003B0020704700EB4310D0F80029002A65
:101C140006DB2BB1D0F8003923F08043C0F800393B
:101C2400D0F8003943F40013C0F80039E9E70B7821
:101C34004A78012A0ED000EB4310D0F8003B23F47D
:101C44000013C0F8003BCB78023BDBB2012B15D963
:101C54000020704700EB4310D0F8003923F4001340
:101C6400C0F80039CB78023BDBB2012BF0D8D0F8B6
:101C7400003943F08053C0F80039E9E7D0F8003B5D
:101C840043F08053C0F8003BE2E7D0F8003823F477
:101C9400FE63C0F80038D0F80038090101F4FE6191
:101CA4001943C0F8001800207047D0F8003E23F014
:101CB4000303C0F8003ED0F8043823F00203C0F850
:101CC400043800207047D0F8003E23F00303C0F826
:101CD400003ED0F8043843F00203C0F80438002072
:101CE40070474269806910407047D0F8183800F591
:101CF4000060C0691840000C7047D0F8183800F52F
:101D04000060C069184080B2704700EB4111D1F8FF
:101D1400082B00F5006040691040704710B4D0F8FB
:101D24001048D0F8343801F00F02D340DB01DBB2A5
:101D3400234300EB411000F510608068184010BC8C
:101D44007047406900F00100704738B50546C36824
:101D540023F0C043C360012913D019BBC36843F007
:101D64008043C3600024012000F0B6F80134284603
:101D7400FFF7E7FF08B1312CF5D9322C14D000203D
:101D840038BDC36843F00053C3600024012000F051
:101D9400A3F801342846FFF7D4FF0128EDD0312CF5
:101DA400F4D9EAE70120EBE70120E9E7D0F80039AC
:101DB40023F4FF6323F00703C0F80039D0F8043894
:101DC40043F48073C0F804380020704710B4046CE6
:101DD400144B9C4203D9D0F8003B002B16DB0024A3
:101DE400C0F8104BD0F8104B44F40024C0F8104B4A
:101DF400D0F8104B44F01804C0F8104BD0F8104B36
:101E040044F0C044C0F8104B012902D0002010BC9B
:101E14007047C0F8142BD0F8003B43F08023C0F87F
:101E2400003BF3E70A30544F014B1860704700BF82
:101E34006800002010B504460E4B18784FF47A73EE
:101E4400B3FBF0F30C4A1068B0FBF3F000F0B8F801
:101E540068B90F2C01D901200AE0002221464FF075
:101E6400FF3000F067F8054B1C60002000E0012003
:101E740010BD00BF60000020680000206400002046
:101E840008B50B4B1A6842F400721A601A6842F4DF
:101E940080621A601A6842F480721A60032000F0AB
:101EA40037F80F20FFF7C6FFFEF726FA002008BD1B
:101EB400003C0240034A1168034B1B780B44136037
:101EC400704700BFC01A002060000020014B186852
:101ED400704700BFC01A002030B583B00190FFF7EF
:101EE400F5FF0546019CB4F1FF3F02D0044B1B787B
:101EF4001C44FFF7EBFF401BA042FAD303B030BDF4
:101F040060000020014B1868704700BF6800002083
:101F1400074AD36823F4E0631B041B0C000200F49B
:101F2400E060034343F0BF6343F40033D36070477E
:101F340000ED00E000B5194BDB68C3F30223C3F1E5
:101F4400070CBCF1040F28BF4FF0040C03F1040E7E
:101F5400BEF1060F18D9033B4FF0FF3E0EFA0CFCFE
:101F640021EA0C0199400EFA03F322EA0303194310
:101F740000280BDB0901C9B200F1604000F56140A3
:101F840080F800135DF804FB0023E5E700F00F0080
:101F94000901C9B2024B1954F4E700BF00ED00E097
:101FA40014ED00E0002807DB00F01F0240090123C4
:101FB4009340024A42F82030704700BF00E100E03D
:101FC4000138B0F1807F0BD24FF0E0235861054A0D
:101FD400F02182F823100020986107221A617047CB
:101FE4000120704700ED00E070B582B0002365E089
:101FF40085685E000324B44025EA0405CC68B44037
:102004002C438460446824EA0C0C4C68C4F3001428
:102014009C4044EA0C04446062E0DD08083550F852
:10202400256003F007044FEA840C0F2404FA0CF42F
:1020340026EA040E0C6904FA0CF444EA0E0440F88F
:10204400254064E0082400E0002404FA0EF42C4344
:102054000CF1020C624D45F82C40624C2568D443C7
:1020640025EA0206D1F804C01CF4803F01D042EAFC
:1020740005065C4D2E606D6804EA0506D1F804C0BF
:102084001CF4003F01D042EA0506564D6E60AD686F
:1020940004EA0506D1F804C01CF4801F01D042EA0A
:1020A4000506504DAE60ED682C404E6816F4001FD6
:1020B40001D042EA05044B4AD46001330A6832FA7B
:1020C40003F400F08A804FF0010C0CFA03FC1CEAC4
:1020D4000202F2D04C6804F00304013C012C87D9BD
:1020E4004C6804F00304032C0CD0C4685D004FF06A
:1020F400030C0CFA05FC24EA0C0C8C68AC4044EA92
:102104000C04C4604C6804F00304022C85D00468F9
:102114004FEA430E4FF0030C0CFA0EFC24EA0C0CAD
:102124004C6804F0030404FA0EF444EA0C0404605A
:102134004C6814F4403FC0D0002401942A4C656CD0
:1021440045F480456564646C04F480440194019C06
:102154004FEA930C0CF10205214C54F8255003F07E
:1021640003044FEA840E0F2404FA0EF425EA04054E
:102174001E4CA0423FF468AF04F58064A0421ED018
:1021840004F58064A0421CD004F58064A0421AD0F7
:1021940004F58064A04218D004F58064A04216D0EF
:1021A40004F58064A04214D004F58064A04212D0E7
:1021B40004F58064A0423FF445AF092445E70124B7
:1021C40043E7022441E703243FE704243DE70524D1
:1021D4003BE7062439E7072437E702B070BD00BFA8
:1021E40000380140003C0140003802400000024039
:1021F400704798B108B50346D0F8B40210B1002076
:10220400C3F8B40209B1C3F8B012012183F89C12D7
:102214001A701846FEF72AFA002008BD02207047FB
:1022240019B1C0F8B412002070470220704708B5F5
:10223400FEF775FA002008BD08B5D0F8B4322BB10A
:102244001B68984700B908BD0220FCE70220FAE7A2
:1022540008B5D0F8B4325B689847002008BD38B59B
:10226400044600F52A75284600F046F90123C4F80F
:102274009432B4F8AE32C4F8983294F8A81201F04B
:102284001F03012B0ED0022B11D02BB101F08001C2
:102294002046FEF75FFA03E02946204600F0DAFA0A
:1022A400002038BD2946204600F008FBF8E72946FF
:1022B400204600F033FBF3E738B504460D4691BBE6
:1022C4001346D0F89422032A03D0052A24D00846C2
:1022D40033E0D0F86011D0F8642191420DD9891A05
:1022E400C0F860118A4206D98AB21946204600F025
:1022F40047FC284621E092B2F7E7D0F8B4321B69D4
:102304001BB190F89C22032A04D0204600F040FC24
:10231400284612E09847F8E70021C0F89412FEF727
:1023240019FA284609E0D0F8B4329B6933B190F821
:102334009C22032A04D19847002038BD0220FCE7E0
:102344000220FAE738B504460D46002953D1134656
:10235400D0F89422022A0CD0042A00D01AB9802181
:102364002046FEF7F7F994F8A032012B3ED0284618
:1023740038BD016A426A91421BD8C169B1FBF2F3CC
:1023840002FB13132BB98A4203D8D0F8983299422E
:102394001CD3D4F8B432DB681BB194F89C22032A12
:1023A40021D080212046FEF7D5F9204600F0FBFB22
:1023B400D9E78A1A026292B2194600F0CAFB0023D6
:1023C4001A4619462046FEF7E5F9CCE700221146E5
:1023D40000F0BFFB0021C4F898120B460A462046C1
:1023E400FEF7D8F9BFE720469847DAE7002384F8D8
:1023F400A0322846BCE7D0F8B4325B6933B190F818
:102404009C22032A04D198470020B1E70220AFE7B9
:102414000220ADE770B50446402300221146FEF7C2
:1024240086F90125C4F858514026C4F8646133463E
:10243400002280212046FEF77AF9A561666284F8BD
:102444009C520023C4F894326360C4F8A432D4F8D4
:10245400B8322BB1D4F8B4325B68002120469847D7
:10246400002070BD01740020704790F89C3280F801
:102474009D32042380F89C320020704790F89C32EF
:10248400042B01D00020704790F89D3280F89C32D4
:10249400F8E708B590F89C32032B01D0002008BD62
:1024A400D0F8B432DB69002BF8D09847F6E7002067
:1024B4007047002070470020704708B5012280F85B
:1024C4009C22D0F8B422526801799047002008BDBC
:1024D4000346002002E00130C0B201331A78002A1A
:1024E400F9D1704708B54B88012B00D008BDC0F85E
:1024F400A43200F04DFBF9E70B7803704B7843707E
:102504008B78CA7803EB022343800B794A7903EB77
:10251400022383808B79CA7903EB0223C38070473B
:1025240010B504468021FEF715F900212046FEF778
:1025340011F910BD30B583B005460C460023ADF843
:1025440006304A88130A013B062B00F2A480DFE818
:1025540003F004182CA2A2869300D0F8B0321B68B2
:102564000DF10601007C9847BDF806201AB1E388F6
:10257400002B40F09480E388002B00F09A8003B095
:1025840030BD037C43B9D0F8B4329B6A0DF1060028
:10259400984702234370E7E7D0F8B432DB6A0DF1C1
:1025A4000600984702234370DEE7D2B2052A52D8C8
:1025B400DFE802F003101D2A3744D0F8B0325B681C
:1025C40023B10DF10601007C9847CDE72146FFF7C2
:1025D400A7FFD4E7D0F8B0329B6823B10DF1060110
:1025E400007C9847C0E72146FFF79AFFC7E7D0F879
:1025F400B032DB6823B10DF10601007C9847B3E7E4
:102604002146FFF78DFFBAE7D0F8B0321B6923B13A
:102614000DF10601007C9847A6E72146FFF780FFED
:10262400ADE7D0F8B0325B6923B10DF10601007C4F
:10263400984799E72146FFF773FFA0E7D0F8B03237
:102644009B6923B10DF10601007C98478CE7214674
:10265400FFF766FF93E72146FFF762FF8FE7037CEE
:1026640033B9D0F8B4325B6B0DF1060098477BE7C1
:102674002146FFF755FF82E7037C43B9D0F8B43213
:102684001B6B0DF106009847072343706CE7214646
:10269400FFF746FF73E72146FFF742FF6FE79A42D1
:1026A40028BF1A46ADF806200146284600F044FA31
:1026B40061E7284600F06CFA61E738B504468B8878
:1026C400F3B9CB88E3B94B887F2B19D803F07F0586
:1026D40090F89C32032B0CD080F89E522946FEF7CA
:1026E40049F8204600F054FA35B1022384F89C32AC
:1026F40009E0FFF715FF06E0012384F89C3202E0AD
:102704002046FFF70DFF38BD38B504460D468978DD
:10271400284B197001290ED890F89C32022B0ED048
:10272400032B21D02946FFF7FBFE224B19782046C4
:10273400FFF78EFD02E02946FFF7F2FE38BD81B1B6
:102744004160032380F89C32FFF776FD022803D012
:10275400204600F01DFAF1E729462046FFF7E0FE87
:10276400ECE700F015FAE9E789B1436899421DD016
:10277400D9B2FFF76DFD0F4B197861602046FFF762
:102784005BFD02280DD0204600F002FAD6E70223B2
:1027940080F89C324160FFF75BFD204600F0F8F9B9
:1027A400CCE729462046FFF7BBFEC7E700F0F0F967
:1027B400C4E700BFC41A002008B5CB88012B0AD196
:1027C40090F89C32022B09D9032B09D10122011D57
:1027D40000F0B2F901E0FFF7A3FE08BD5BB213B944
:1027E400FFF79EFEF9E70146002341F8083F012266
:1027F40000F0A2F9F1E708B590F89C32013B022BF6
:1028040012D8CB88022B0CD10123C360D0F8A43298
:102814000BB10323C360022200F10C0100F08CF918
:1028240008BDFFF77DFEFBE7FFF77AFEF8E708B582
:1028340090F89C32013B022B09D84B88012B00D025
:1028440008BD0023C0F8A43200F0A2F9F8E7FFF7AE
:1028540067FEF5E708B50B7803F06003202B05D07D
:10286400402B03D043B1FFF75BFE03E0D0F8B43252
:102874009B689847002008BD4B78092B1BD8DFE8DC
:1028840003F011171A141A08051A0E0BFFF752FE5B
:10289400F0E7FFF712FFEDE7FFF736FFEAE7FFF790
:1028A4008BFFE7E7FFF7A7FFE4E7FFF71BFEE1E78E
:1028B400FFF7BDFFDEE7FFF733FEDBE738B505467C
:1028C4000C460B7803F06003202B06D0402B04D079
:1028D4001BB1FFF725FE002038BD95F89C32013B63
:1028E400022B16D82379012B0ED8D5F8B4329B6865
:1028F400214628469847E388002BECD10028EAD1EA
:10290400284600F045F9E6E721462846FFF708FE89
:10291400E1E721462846FFF703FEDCE770B50546EC
:102924008B880C7804F06004202C07D0DAB2402C99
:1029340004D05CB1FFF7F4FD002405E0D5F8B4320F
:102944009B68284698470024204670BD202C09D057
:102954004E78012E33D0032E0AD0002E55D0FFF727
:10296400DFFDF1E7D0F8B4329B6898470446EBE703
:1029740090F89C32022B04D0032B11D0FFF7D0FD2A
:10298400E2E70AB1802A03D12846FFF7C9FDDBE755
:102994001146FDF7DFFE80212846FDF7DBFED3E775
:1029A4004B8823B91AB1802A01D0CB881BB12846A1
:1029B40000F0EEF8C8E71146FDF7CCFEF7E790F813
:1029C4009C32022B04D0032B11D0FFF7A9FDBBE7E7
:1029D4000AB1802A03D12846FFF7A2FDB4E71146C5
:1029E400FDF7B8FE80212846FDF7B4FEACE74B881E
:1029F400002BA9D112F07F0F03D1284600F0C8F8AC
:102A0400A2E71146FDF7AEFEF7E790F89C02022814
:102A140006D0032829D02846FFF782FD344693E7E1
:102A24000AB1802A13D113F0800F15D102F07F026E
:102A340002EB8202910001F5A871294404310023BC
:102A44000B600222284600F077F834467CE72846DB
:102A5400FFF766FD344677E702F07F0202EB82025D
:102A64009100103129440431E9E75BB2002B1FDBEC
:102A740002F00F0000EB800005EB8000D0F8580155
:102A840020B3002B27DB02F07F0303EB83039C00BE
:102A940004F5A8742C4404340AB1802A24D10023F8
:102AA400236002222146284600F046F834464BE7CC
:102AB40002F00F0000EB800005EB80008069002825
:102AC400DFD12846FFF72CFD34463DE72846FFF7C3
:102AD40027FD344638E702F07F0303EB83039C00B1
:102AE40010342C440434D7E711462846FDF7F0FD92
:102AF40010B101232360D4E700232360D1E7D0B1D0
:102B040070B50D4616460446FFF7E2FC431C5B0015
:102B14009BB233802B7003236B70022307E00134D4
:102B24005A1CD2B2E8540233DBB20021A9542078F3
:102B34000028F4D170BD704708B513460222C0F8CE
:102B44009422C36103620A460021FDF71BFE0020A4
:102B540008BD08B513460A460021FDF713FE002000
:102B640008BD08B513460322C0F89422C0F85C31AE
:102B7400C0F860310A460021FDF70CFE002008BDB4
:102B840008B513460A460021FDF704FE002008BDDF
:102B940008B50423C0F8943200231A461946FDF7F9
:102BA400F1FD002008BD08B50523C0F894320023C8
:102BB4001A461946FDF7EEFD002008BD10B5D0F801
:102BC400B842D0F8BC325BB194F80002FF2807D0B9
:102BD4009B6894F8012221469847FF2384F8003229
:102BE400002010BD4323038000487047A400002048
:102BF4004323038000487047E800002043230380F8
:102C040000487047380100200A23038000487047B9
:102C14002C01002038B50446D0F8B852FDF76FFDFA
:102C2400C5F80C02D4F8B8324BB1D4F8BC32DB6826
:102C340005F50371D5F804029847002038BD022039
:102C4400FCE710B5D0F8B822D0F8C042F2B101EBDD
:102C5400810300EB8303DB694BB1C1EBC10C04EBD3
:102C64008C04646CB3FBF4FC04FB1C3323B100231D
:102C7400C2F81432002010BD01EB810300EB830382
:102C84000022DA611346FDF77DFDF3E70220F2E747
:102C9400F0B583B006460C46D0F8B87200238DF820
:102CA4000730ADF804300B7813F0600527D0202DE1
:102CB40053D1CA88DAB113F0800F0CD0D0F8BC32EB
:102CC4009B68394660789847E28839463046FFF772
:102CD40033FF002544E04B7887F800328B7987F87E
:102CE4000132CA883946FFF73CFF002538E0D0F8A6
:102CF400BC329B68002248789847002530E04F7822
:102D04000A2F14D00B2F20D01FB1FFF709FC022586
:102D140026E090F89C32032B03D0FFF701FC022538
:102D24001EE0022201A9FFF707FF3D4618E090F8D4
:102D34009C32032B03D0FFF7F3FB022510E00122A2
:102D44000DF10701FFF7F8FE0AE090F89C32032B1F
:102D540006D0FFF7E5FB022502E0FFF7E1FB0225C1
:102D6400284603B0F0BD38B504468121FDF7EAFCDE
:102D74000025E56201212046FDF7E4FCC4F86C510E
:102D840082212046FDF7DEFC2564D4F8B8324BB12D
:102D9400D4F8BC325B689847D4F8B80200F0DCF889
:102DA400C4F8B852002038BD70B50446037CABBBF0
:102DB4004FF4007302228121FDF7B9FC0125E5627D
:102DC4004FF40073022229462046FDF7B0FCC4F8F4
:102DD4006C510823032282212046FDF7A8FC01231D
:102DE40023644FF4077000F0AFF80546C4F8B80246
:102DF40068B3D4F8BC321B6898470023C5F8143272
:102E0400C5F81832267CCEB94FF40073D5F80422E5
:102E140001212046FDF7BEFC304670BD402302224E
:102E24008121FDF784FC0125E56240230222294625
:102E34002046FDF77CFCC4F86C51CAE74023D5F862
:102E4400042201212046FDF7A5FC0026E4E7012623
:102E5400E2E719B1C0F8BC120020704702207047A5
:102E6400D0F8B832C3F80812C3F810220020704713
:102E7400D0F8B832C3F8041200207047D0F8B82252
:102E840092B108B5037C43B94FF40073D2F804221D
:102E94000121FDF77FFC002008BD4023D2F8042265
:102EA4000121FDF777FCF6E702207047DFF834D004
:102EB4000D480E490E4A002302E0D458C45004338E
:102EC400C4188C42F9D30B4A0B4C002301E0136065
:102ED4000432A242FBD3FFF78BF900F011F8FDF79F
:102EE400EDF970470000022000000020E0010020FE
:102EF400E4310008E0010020DC1A0020FEE70000B5
:102F040070B500260C4D0D4C641BA410A64209D1CB
:102F140000F032F900260A4D0A4C641BA410A642A4
:102F240005D170BD55F8043B98470136EEE755F8D6
:102F3400043B98470136F2E7DC310008DC31000835
:102F4400DC310008E0310008024B0146186800F04B
:102F540073B800BF7C010020024B0146186800F0E2
:102F640003B800BF7C01002038B50546002940D0D5
:102F740051F8043C0C1F002BB8BFE41800F0E0F833
:102F84001C4A136833B9636014602846BDE83840AE
:102F940000F0DCB8A34208D9206821188B4201BF95
:102FA40019685B6809182160EDE71A465B680BB184
:102FB400A342FAD911685018A0420BD120680144E9
:102FC400501883421160E0D118685B6801441160B5
:102FD4005360DAE702D90C232B60D6E72068211866
:102FE4008B4201BF19685B680918216063605460F3
:102FF400CBE738BDC81A002070B50E4E0C463168B8
:10300400054611B900F08CF830602146284600F0DE
:1030140087F8431C0AD0C41C24F00304A04207D040
:10302400211A284600F07CF8013001D14FF0FF341A
:10303400204670BDCC1A00202DE9F041CD1C25F0AE
:10304400030508350C2D38BF0C25002D074601DB80
:10305400A94205D90C2300263B603046BDE8F08127
:103064002E4E00F06DF833681C4634BB29463846B2
:10307400FFF7C2FF431C04464DD134682646002E98
:1030840040D123683146384604EB030800F048F881
:1030940080453AD1216803356D1A25F003050835BA
:1030A4000C2D38BF0C2538462946FFF7A5FF013003
:1030B4002BD023682B4423600EE02268521B1ED4BD
:1030C4000B2A16D96119A342256018BF5960636899
:1030D40008BF316062514B60384604F10B0600F0C2
:1030E40035F826F00706231DF21AB6D09B1BA35011
:1030F400B3E76268A3420CBF32605A60ECE7234630
:103104006468B2E734467668B9E70C2338463B6016
:1031140000F01CF8A1E72560DEE700BFC81A002014
:1031240038B50023054D044608462B6000F016F818
:10313400431C02D12B6803B1236038BDD01A002090
:10314400014800F009B800BFD41A0020014800F07B
:1031540004B800BFD41A002070477047044A0549D8
:103164001368002B08BF0B461844106018467047BC
:10317400D81A0020E01A0020F8B500BFF8BC08BC3B
:103184009E467047F8B500BFF8BC08BC9E46704721
:1031940053544D3332205669727475616C20436FF9
:1031A4006D506F727400000053544D6963726F6503
:1031B4006C656374726F6E696373000043444320EB
:1031C400436F6E666967000043444320496E74652B
:0831D4007266616365000000F2
:0431DC00A90100083D
:0431E000850100085D
:1031E4008903000895030008590400083504000801
:1031F4002104000875040008990400081201000263
:10320400020200408304405700020102030100004F
:10321400040309041A030000000000000000000079
:10322400000000000000000000000000000000009A
:10323400E1040008BD040008C1040008C504000836
:1032440001000000100000000024F400AD2D00086F
:103254006B2D0008952C000800000000C12B00080D
:10326400472C0008192C0008000000000000000092
:1032740000000000F52B0008E92B0008012C0008D1
:103284000D2C000809024300020100C032090400A9
:1032940000010202010005240010010524010001BF
:1032A4000424020205240600010705820308001015
:1032B40009040100020A00000007050102400000A1
:1032C400070581024000000009024300020100C01A
:1032D4003209040000010202010005240010010566
:1032E40024010001042402020524060001070582CA
:1032F4000308001009040100020A00000007050188
:103304000200020007058102000200000A06000212
:10331400000000400100000009074300020104C04E
:103324003209040000010202010005240010010515
:103334002401000104240202052406000107058279
:103344000308001009040100020A00000007050137
:1033540002400000070581024000000080010020B7
:103364000000000000000000000000000000000059
:103374000000000000000000000000000000000049
:103384000000000000000000000000000000000039
:103394000000000000000000000000000000000029
:1033A4000000000000000000000000000000000019
:1033B4000000000000000000000000000000000009
:0400000508002EB110
:00000001FF
