:020000040800F2
:1000000000000220552D000801030008030300082A
:1000100005030008070300080903000800000000AA
:100020000000000000000000000000000B030008BA
:100030000D030008000000000F0300081103000872
:10004000A52D0008A52D0008A52D0008A52D000848
:10005000A52D0008A52D0008A52D0008A52D000838
:10006000A52D0008A52D0008A52D0008A52D000828
:10007000A52D0008A52D0008A52D0008A52D000818
:10008000A52D0008A52D0008A52D0008A52D000808
:10009000A52D0008A52D0008A52D0008A52D0008F8
:1000A000A52D0008A52D0008A52D0008A52D0008E8
:1000B000A52D0008A52D0008A52D0008A52D0008D8
:1000C000A52D0008A52D0008A52D0008A52D0008C8
:1000D000A52D0008A52D0008A52D0008A52D0008B8
:1000E000A52D0008A52D0008A52D0008A52D0008A8
:1000F000A52D0008A52D0008A52D0008A52D000898
:10010000A52D0008A52D0008A52D0008A52D000887
:10011000A52D0008A52D0008A52D0008A52D000877
:10012000A52D0008A52D0008A52D0008A52D000867
:10013000A52D0008A52D0008A52D0008A52D000857
:10014000A52D0008A52D0008A52D000819030008FD
:10015000A52D0008A52D0008A52D0008A52D000837
:10016000A52D0008A52D0008A52D0008A52D000827
:10017000A52D0008A52D0008A52D000800000000F1
:04018000A52D0008A1
:1001840010B5054C237833B9044B13B10448AFF3CD
:1001940000800123237010BDE00100200000000056
:1001A4003030000808B5034B1BB103490348AFF3D3
:1001B400008008BD00000000E40100203030000889
:1001C40008B5294A136823F00F0343F003031360AF
:1001D400136803F00F03032BFAD1244A136843F482
:1001E40080331360136813F4003FFBD01F4B5A682D
:1001F4001F4911401F4A0A435A605A681E49114058
:100204001E4A0A435A601A6842F080721A601A46FB
:10021400136813F0007FFBD0144B9A6822F0F002AD
:100224009A609A6822F4E05242F4A0529A609A6862
:1002340022F4604242F400429A609A6822F0030277
:1002440042F002029A601A46936803F00C03082BEA
:10025400FAD10B4801F038FD0F2000F065F800B921
:1002640008BD72B6FEE700BF003C02400038024001
:100274000080BCFF143040000080BFF01430400503
:10028400000E270700B583B000F074F8FFF798FF5D
:100294000A4B1A6B42F080021A631A6B02F0800256
:1002A4000092009A1A6B42F001021A631B6B03F06E
:1002B40001030193019B02F03DFBFEE7003802407D
:1002C40072B6FEE782B0002100910B4B5A6C42F4E7
:1002D40080425A645A6C02F480420092009A01915E
:1002E4001A6C42F080521A641B6C03F08053019321
:1002F400019B02B0704700BF00380240FEE7FEE7F2
:10030400FEE7FEE7FEE770477047704708B500F068
:100314004BF808BD08B5024800F09EFA08BD00BFBE
:10032400C81600207047000010B504460E4B18781C
:100334004FF47A73B3FBF0F30C4A1068B0FBF3F09C
:1003440000F0B0F868B90F2C01D901200AE00022AE
:1003540021464FF0FF3000F061F8054B1C6000208F
:1003640000E0012010BD00BF0400002000000020B8
:100374000800002008B50B4B1A6842F400721A609A
:100384001A6842F480621A601A6842F480721A6031
:10039400032000F031F80F20FFF7C6FFFFF792FFAC
:1003A400002008BD003C0240034A1168034B1B783F
:1003B4000B441360704700BFFC01002004000020C0
:1003C400014B1868704700BFFC01002030B583B0B2
:1003D4000190FFF7F5FF0546019CB4F1FF3F02D001
:1003E400044B1B781C44FFF7EBFF401BA042FAD3DD
:1003F40003B030BD040000200749CA68030203F4B7
:10040400E06322F4E0621204120C134343F0BF636E
:1004140043F40033CB60704700ED00E000B5184BA7
:10042400DB68C3F30223C3F1070CBCF1040F28BF3C
:100434004FF0040C03F1040EBEF1060F8CBF033B16
:1004440000234FF0FF3E0EFA0CFC21EA0C01994008
:100454000EFA03F322EA03021143002809DB09011F
:10046400C9B200F1604000F5614080F800135DF806
:1004740004FB00F00F000901C9B2024B1954F6E75E
:1004840000ED00E014ED00E0002808DB420900F074
:100494001F00012303FA00F0014B43F822007047C8
:1004A40000E100E00138B0F1807F0BD24FF0E0238F
:1004B4005861054AF02182F8231000209861072230
:1004C4001A6170470120704700ED00E00B68002BB3
:1004D40000F009812DE9F04F83B04FF0000C624623
:1004E400814D824E824C834FDFF80C8255E0836845
:1004F4004FF0030A0AFA0CFA23EA0A0ACB6803FA51
:100504000CF343EA0A038360436823EA0E0E4B6844
:10051400C3F30013934043EA0E0343604AE04FF0F1
:10052400000E0EFA0BFE4EEA0A0EC3F808E023682A
:100534006FEA090ED1F804A01AF4803F0CBF0EEA4A
:10054400030349EA030323606368D1F804A01AF49F
:10055400003F0CBF0EEA030349EA03036360A36888
:10056400D1F804A01AF4801F0CBF0EEA030349EA71
:100574000303A360E368D1F804A01AF4001F0CBFBE
:100584000EEA030349EA0303E36001320B680CF14A
:10059400020C33FA02FE00F0A3804FF0010E0EFAB3
:1005A40002FE1EEA0309F0D04B6803F00303013B8B
:1005B400012B9CD94B6803F00303032B27D0C3689A
:1005C4004FF0030E0EFA0CFE23EA0E0E8B6803FAAC
:1005D4000CF343EA0E03C3604B6803F00303022BDE
:1005E40015D14FEAD20E00EB8E0EDEF820A002F0F9
:1005F40007034FEA830B0F2303FA0BF32AEA030AD8
:100604000B6903FA0BF343EA0A03CEF820300368BC
:100614004FF0030E0EFA0CFE23EA0E0E4B6803F0A5
:10062400030303FA0CF343EA0E0303604B6813F469
:10063400403FAAD0002301936B6C43F480436B6466
:100644006B6C03F480430193019B22F0030303F1D9
:10065400804303F59C33D3F808A002F0030E4FEA5D
:100664008E0B4FF00F0E0EFA0BFE2AEA0E0AB04262
:100674003FF455AFB8421ED040451FD0DFF87CE0B0
:1006840070451ED00EF5806E70451DD00EF5806E3F
:1006940070451CD00EF5806E70451BD00EF5806E33
:1006A40070451AD00EF5806E70450CBF4FF0080EE1
:1006B4004FF0090E35E74FF0010E32E74FF0020E0E
:1006C4002FE74FF0030E2CE74FF0040E29E74FF00D
:1006D400050E26E74FF0060E23E74FF0070E20E73E
:1006E40003B0BDE8F08F70470038024000000240BC
:1006F400003C01400004024000080240000C02409B
:1007040070B58AB0002800F090800546046890F81F
:10071400BD333BB3032385F8BD33E36B13F4807F10
:1007240004BF00232B61286800F00EFE2C4654F809
:10073400106BEC460FCCACE80F000FCCACE80F000C
:1007440094E803008CE803002B1D0ECB304600F028
:1007540045FD044658B1022385F8BD3301242046E3
:100764000AB070BD80F8BC3302F0ACF9D2E70021C6
:10077400286800F0EFFD686898B323464FF0010C39
:100784000021C3EBC30205EB820282F83DC082F86C
:100794003C30A2F8423082F83F1051649164C3EBBC
:1007A400C30205EB820211650133DBB28342E8D355
:1007B4000022C4EBC40305EB830383F8FD2183F813
:1007C400FC4183F8FF21C3F80422C3F80822C4EBD8
:1007D400C40305EB8303C3F810220134E4B284425A
:1007E400E7D32C4654F8106BEC460FCCACE80F0062
:1007F4000FCCACE80F0094E803008CE803002B1D39
:100804000ECB304600F002FE044620B1022385F8E8
:10081400BD330124A3E7002385F83830012385F88C
:10082400BD33286801F0D0F999E7012497E790F8DF
:10083400BC33012B0ED010B50446012380F8BC3321
:10084400006800F07BFD206801F0B0F9002084F816
:10085400BC0310BD022070472DE9F04F89B0044657
:100864000668304601F0EEF910B109B0BDE8F08F2A
:100874008346206801F0B6F90028F6D0206801F01C
:10088400B1F910F0020F04D02268536903F0020397
:100894005361206801F0A6F910F0100F13D02268FC
:1008A400936923F010039361356A05F00F07C5F3CC
:1008B4004343022B68D0062B00F08480226893699E
:1008C40043F010039361206801F08CF910F4002FB9
:1008D40040F08A80206801F085F910F4802F40F000
:1008E4000681206801F07EF90028C0F2C2812068E8
:1008F40001F078F910F4006F0AD0D6F8083813F034
:10090400010F40F0C5812268536903F40063536109
:10091400206801F067F910F4805F40F0C18120681D
:1009240001F060F910F4005F40F01482206801F0D7
:1009340059F910F0080F40F02582206801F052F9AF
:1009440010F4801F40F02782206801F04BF910F466
:10095400001F40F02A82206801F044F910F0804F13
:1009640040F02D82206801F03DF910F0040F3FF4AF
:100974007CAF23685D6815F0040F40F0298222687B
:1009840053682B43536070E747F6F0731D4295D0CC
:100994004FEA151AC7EBC70804EB8808C5F30A1217
:1009A400D8F80812304601F071F8CAF30A02D8F8F0
:1009B40008321344C8F80832D8F814321A44C8F874
:1009C40014227BE7082204F57171304601F05EF8C9
:1009D400C7EBC70104EB8101C5F30A13D1F8142254
:1009E4001344C1F8143269E7206801F0FFF80546A2
:1009F40000283FF46FAF06F53067A246D846039649
:100A040005E20123BB602068D0F840C000F53063E4
:100A140003EB48139A68216901290ED09E498C453D
:100A24004CD0B8F1000F03D1D4F81032002B56D0BB
:100A34004946204602F090F8F7E112F0080F0BD077
:100A440096498C4540F2F18112F4004F00F0ED819B
:100A54004FF400429A60E8E112F0200F02D0202205
:100A64009A60E2E112F0280F40F0DF818B498C4557
:100A740006D912F4004F03D04FF400429A60D4E137
:100A8400DAF804221B69C3F31203D31ACAF8143226
:100A9400DAF808321344CAF80832B8F1000F02D168
:100AA400D4F8103223B14946204602F055F8BCE18F
:100AB40004F57172012101F0D9F8F4E712F4004F42
:100AC40003D04FF400429A60AFE112F0200F1CBF34
:100AD40020229A604946204602F03EF8A5E104F53A
:100AE4007172002101F0C2F8A2E7039EF2E62068C9
:100AF40001F084F8804600283FF4F3AEA24606F5E0
:100B040010695F460396CDF810B02DE004F57172BC
:100B14000146206801F0AAF85946204602F028F858
:100B240015F0080F1CBF0823C9F8083015F0100F82
:100B34001CBF1023C9F8083015F0400F1CBF402318
:100B4400C9F8083015F0020F1CBF0223C9F8083099
:100B540015F0800F34D101370AF11C0A09F120097C
:100B64005FEA580800F0818018F0010FF3D05FFAB3
:100B740087FB5946206801F052F8054610F0010F32
:100B8400CED0039B03F50061D3F8343807F00F028D
:100B9400012000FA02F223EA02034B63C9F80800B9
:100BA40023698342B8D1DAF84830DAF84420134490
:100BB400CAF84830002FAFD1236D002BACD1A5E784
:100BC4005646DAF85420DAF850309A42C3D82168ED
:100BD40005919B1A01F5106202EB471210469269C7
:100BE400DAF844108B4228BF0B46033392B2B2EBBF
:100BF400930F25D3CDF818A082460797059F736DF0
:100C0400356D9D4221D9ED1A736C9D4228BF1D4656
:100C1400237C0093ABB25A46B16C384600F018FE00
:100C2400B36C2B44B364736D2B447365DAF81830DA
:100C340003359BB2B3EB950FE1D2DDF818A0079F03
:100C4400326D736D9A4286D802E0DDF818A0079FD2
:100C5400059BD3F8342807F00F01012000FA01F1B5
:100C640022EA0102C3F8342875E7039EDDF810B0C8
:100C740037E6D6F8043823F00103C6F804382046D2
:100C840001F0B6FF2268536903F0004353612EE676
:100C9400204601F095FF36E60A31544F0A30544F8E
:100CA40006F500656B6823F001036B601021206872
:100CB40000F082FB636803B306F510634FF67F31DF
:100CC40099601A6822F400121A601A6842F00062ED
:100CD4001A60C3F80812D3F8002222F40012C3F8F1
:100CE4000022D3F8002242F00062C3F800220BF184
:100CF400010B203362685A45E2D8EB6943F00113D3
:100D0400EB61236BDBB1D5F8843043F00B03C5F8FA
:100D140084306B6C43F00B036B64D6F8003823F417
:100D2400FE63C6F8003804F57172217C206800F077
:100D34009DFF2268536903F480535361EFE56B69A7
:100D440043F4005343F02B036B612B6943F00B0313
:100D54002B61E2E7206800F079FF206800F022FCB4
:100D6400E060256800F01AFA0146227B284600F06C
:100D740073FA204601F00DFF2268536903F400530F
:100D84005361D3E5204601F0FEFE2268536903F067
:100D940008035361D1E50021204601F035FF2268A4
:100DA400536903F480135361CEE50021204601F01A
:100DB40025FF2268536903F400135361CBE52046F1
:100DC40001F028FF2268536903F080435361C9E5A9
:100DD400204601F025FFD2E5204601F0B5FE16F0CD
:100DE400100F1CBF1023BB6016F0200F1CBF202364
:100DF400BB6016F4005F1CBF4FF40053BB6008F1E6
:100E0400010820370AF11C0A6D083FF46EAE15F094
:100E1400010FF4D05FFA88F94946206800F0F6FE25
:100E2400064610F0010F7FF4ECAD16F0080FD6D093
:100E34000823BB6023681A6C03F5306303EB481383
:100E440099680B488242C7D911F4004F02D04FF47D
:100E540000429A60204601F077FE2369012BBED13F
:100E640004F571720121206800F000FFB7E700BFAC
:100E74000A30544F90F8BC33012B0DD010B5044602
:100E8400012380F8BC3380F83810006800F07EFE3F
:100E9400002084F8BC0310BD0220704710B504463E
:100EA4008C4611F0800F28D101F00F00C0EBC00E6A
:100EB40004EB8E0E0EF5FE7170464FF0000E80F8B6
:100EC400FDE10CF00F0C81F800C08A60CB704A7809
:100ED4000AB1A1F806C0022B04BF00230B7194F8D9
:100EE400BC33012B19D0012384F8BC33206800F0F3
:100EF40068FB002084F8BC0310BD01F00F00C0EBB8
:100F0400C00104EB81013C31C0EBC00004EB800064
:100F14004FF0010E80F83DE0D3E70220ECE710B576
:100F240004460B4611F0800F1FD101F00F02C2EBF3
:100F3400C20100EB810101F5FE71C2EBC20200EBBC
:100F44008202002082F8FD0103F00F030B7094F875
:100F5400BC33012B18D0012384F8BC33206800F083
:100F64007BFB002084F8BC0310BD01F00F02C2EB30
:100F7400C20100EB81013C31C2EBC20200EB8202F0
:100F8400012082F83D00DFE70220EDE710B501F013
:100F94000F04C4EBC40100EB810101F5FE71C4EB45
:100FA400C40C00EB8C0CCCF80822CCF810320023D3
:100FB400CCF814328CF8FD318CF8FC410369012B18
:100FC40006D064B9DAB2006800F0B4FB002010BDAA
:100FD400C4EBC40C00EB8C0CCCF80C22F1E7DAB2B5
:100FE400006800F04BFCF1E701F00F01C1EBC10117
:100FF40000EB8101D1F81402704710B501F00F0421
:10100400C4EBC40100EB81013C31C4EBC40C00EB24
:101014008C0CCCF84820CCF850300023CCF8543059
:1010240001238CF83D308CF83C400369012B06D039
:1010340064B9DAB2006800F07DFB002010BDC4EB97
:10104400C40C00EB8C0CCCF84C20F1E7DAB200684D
:1010540000F014FCF1E738B501F00F054268954241
:1010640037D804460B4611F0800F1ED1C1EBC101E5
:1010740000EB810101F5FE71C3EBC30300EB8303B5
:10108400002283F8FD2101238B700D7094F8BC338A
:10109400012B20D0012384F8BC33206800F01BFD11
:1010A40085B1002084F8BC0338BDC5EBC50100EB55
:1010B40081013C31C5EBC50300EB8303012283F8B6
:1010C4003D20E0E704F57172217C206800F0CEFD3C
:1010D400E7E70120E8E70220E6E701F00F034268B2
:1010E40093422FD810B5044611F0800F1DD1C3EBE5
:1010F400C30100EB810101F5FE71C3EBC30200EBF8
:101104008202002082F8FD0100228A700B7094F89C
:10111400BC33012B18D0012384F8BC33206800F0C1
:1011240007FD002084F8BC0310BDC3EBC30100EB32
:1011340081013C31C3EBC30200EB8202012082F83F
:101144003D00E1E7012070470220EDE710B4046898
:10115400606A29B940EA0240A062002010BC7047CE
:10116400A36A00EB1340B1F1010C0BD0002303F18F
:10117400400104EB8101496800EB11400133DBB20B
:101184006345F4D340EA02400CF1400C04EB8C04B8
:101194006060E2E70368596200207047014B1868F9
:1011A400704700BF000000200B4B0269002A03DBDC
:1011B400013BFAD103207047036943F00103036143
:1011C400054B026912F0010F03D0013BF9D1032052
:1011D40070470020704700BF400D030084B010B575
:1011E400044603A880E80E00089B012B1FD1A36BC3
:1011F40023F48033A363E36823F4840323F04003DC
:10120400E360E36823F44013E3600F9B012B09D0F0
:101214002046FFF7C9FF069B012B14D0BDE8104000
:1012240004B07047E36843F48013E360F0E7E368D5
:1012340043F04003E3602046FFF7B6FFA36B43F49B
:101244008033A363E7E7A36843F00603A360A368BE
:1012540043F02003A360E1E7022A0AD00921C2680F
:1012640022F47052C260C36843EA8123C360002041
:101274007047234B0B44234A934230D9224B0B44EF
:10128400224A93422DD9A1F57403A3F51053204AA1
:10129400934228D9A1F18373A3F5E7431D4A9342EE
:1012A40023D31D4B0B441D4A934220D91C4B0B44A2
:1012B4001C4A93421DD31C4B0B441C4A93421AD321
:1012C400A1F1B773A3F55853194A934215D3194B97
:1012D4000B4419498B4234BF07210621BFE70F2174
:1012E400BDE70E21BBE70D21B9E70C21B7E70B21C0
:1012F400B5E70A21B3E70921B1E70821AFE700BF49
:10130400405327FFFF340C00401E1BFF3F420F00D9
:101314007F4F120020D6130060B6E5FE5FE316008F
:1013240000D3CEFE40771B00C05BB3FEC09121000A
:1013340020753800E05459FEE09C4100836843F076
:101344000103836000207047836823F001038360F6
:101354000020704770B50546C36823F0C043C360DE
:10136400012915D029BBC36843F08043C36000241E
:1013740001263046FFF72AF801346B6913F0010F98
:1013840001D0322CF5D1322C14BF0020012070BDC5
:10139400C36843F00053C360002401263046FFF7BE
:1013A40015F801346B6913F0010FECD1322CF5D12F
:1013B400E9E70120EBE70000890141F02001016128
:1013C400054B026912F0200F03D0013BF9D1032031
:1013D40070470020704700BF400D030010230361D5
:1013E400054B026912F0100F03D0013BF9D1032021
:1013F40070470020704700BF400D0300D0F800384C
:101404001943C0F8001800207047000084B02DE98B
:10141400F047044609A880E80E000D46139E0023F9
:10142400194603F1400204EB8202516001330F2B91
:10143400F7D126BBD4F8043843F00203C4F80438C7
:10144400A36B43F40013A363A36B23F40023A363EC
:10145400A36B23F48023A3630023C4F8003E04F5A4
:101464000067D4F80038C4F800380E9B012B14D15F
:101474000B9B6BB900212046FFF7C0FF11E0A36B63
:1014840023F40013A363A36B43F40023A363E3E7F0
:1014940001212046FFF7B2FF03E003212046FFF7B6
:1014A400ADFF10212046FFF787FF80462046FFF757
:1014B40095FF48EA000818F0FF0F14BF4FF0010E23
:1014C4004FF0000E00233B617B61FB61002D3FD098
:1014D40004F51063002294464FF090494FF0006ADF
:1014E4004FF67F380AE082B1C3F80090C1F810C00B
:1014F400C1F8088001322033954209D01946186892
:101504000028F0DBC3F800C0F0E7C3F800A0EDE763
:1015140004F53063002294464FF090494FF0006A7E
:101524004FF67F380AE082B1C3F80090C1F810C0CA
:10153400C1F8088001322033954209D01946186851
:101544000028F0DBC3F800C0F0E7C3F800A0EDE723
:101554003B6923F480733B610023A3616FF08043F4
:1015640063610C9B1BB9A36943F01003A361A269D7
:101574000B4B1343A3610F9B1BB1A36943F00803F7
:10158400A361012E04D07046BDE8F04704B0704753
:10159400A36943F0804343F00403A361F3E700BF6E
:1015A40000383C80D0F8083800F5006013F0060FCE
:1015B40005D013F0020F14BF02200F207047002043
:1015C400704710B591F800C04A78012A22D0D0F8AB
:1015D4001C480CF00F0E4FF4803303FA0EF3234330
:1015E400C0F81C3800EB4C10D0F8003B13F4004F4B
:1015F4000ED1D0F8002B8B68C3F30A031343CA78C7
:1016040043EA824343F0805343F40043C0F8003B71
:10161400002010BDD0F81C480CF00F0E02FA0EF298
:101624002243C0F81C2800EB4C10D0F8003913F406
:10163400004FEDD1D0F800498A68C2F30A0323436E
:10164400CA7843EA824343EA8C5343F0805343F419
:101654000043C0F80039DBE730B40B784A78012A3C
:1016640026D000EB4313D3F8002B002A50DBD0F82C
:101674003C480A7802F00F024FF0010C0CFA02F217
:1016840024EA0242C0F83C28D0F81C28097801F06A
:101694000F010CFA01FC22EA0C42C0F81C28D3F812
:1016A400001B224A0A40C3F8002B002030BC7047BC
:1016B40000EB4313D3F80029002A1CDBD0F83C5874
:1016C4000A7802F00F02012404FA02F225EA020267
:1016D400C0F83C28D0F81C28097801F00F018C4090
:1016E40022EA0404C0F81C48D3F80019104A0A403E
:1016F400C3F80029D9E7D3F8002942F00062C3F8FF
:101704000029D3F8002942F08042C3F80029D5E724
:10171400D3F8002B42F00062C3F8002BD3F8002B5F
:1017240042F08042C3F8002BA1E700BF0078F3EF3A
:10173400007833EC70B40B784C78012C26D000EB95
:10174400431000F530631C69E40CE4041C611C695B
:1017540024F0FF5424F4C0141C614C690CB18C684F
:101764004C611C6944F400241C611D698C68C4F339
:1017740012042C431C61012A65D0D0F8003B43F0CD
:101784000443C0F8003B002070BC70474C696CBB3C
:1017940000EB4314D4F8105925F0FF5525F4C01577
:1017A400C4F81059D4F8105945F40025C4F8105958
:1017B400D4F81059ED0CED04C4F81059012A33D0B3
:1017C40000EB4313D3F8002942F00442C3F8002984
:1017D4004B69002BD7D0D0F834480B7803F00F02B4
:1017E400012393402343C0F83438CCE700EB43147F
:1017F40004F510642569ED0CED042561256925F0D7
:10180400FF5525F4C01525618D684E69AE4288BF29
:101814004D61256945F40025256126694D69C5F3A7
:10182400120535432561C9E70A691AB100EB431172
:10183400C1F8142900EB4310D0F8002942F0044207
:10184400C0F800299FE7CA68002A96D05A6194E735
:1018540010B49DF8044074B903334FEA930C032B7E
:1018640009D9013200EB0230002351F8042B026045
:1018740001339C45F9D8002010BC7047F0B583B003
:101884000B784C78012C33D000EB431303F5306C08
:10189400DCF81040E40CE404CCF81040DCF8104010
:1018A40024F0FF5424F4C014CCF810404C69002CEC
:1018B40040F0BB80DCF810508C68C4F312042C4355
:1018C400CCF81040DCF8104044F40024CCF810406C
:1018D400012A00F0C480CA78012A00F0C780D3F836
:1018E400002B42F00442C3F8002B002003B0F0BDEB
:1018F4004C6984BB00EB4314D4F8105925F0FF5510
:1019040025F4C015C4F81059D4F8105945F400252D
:10191400C4F81059D4F81059ED0CED04C4F810595A
:10192400012A4CD000EB4313D3F8004944F004449B
:10193400C3F80049CC78012C63D04B69002BD4D078
:10194400D0F834480B7803F00F020123934023436B
:10195400C0F83438C9E700EB4314D4F81059ED0C3F
:10196400ED04C4F81059D4F8105925F0FF5525F4A6
:10197400C015C4F81059D4F810798E684D693544EF
:10198400013DB5FBF6F5404E06EAC5453D43C4F8B6
:101994001059D4F810694D69C5F312053543C4F8DC
:1019A400105904F51064CD78012DB9D1256925F0BD
:1019B400C0452561256945F000552561B0E70A69F0
:1019C4001AB100EB4314C4F81429CA78012A08D0C8
:1019D40000EB4313D3F8002942F00442C3F8002972
:1019E40083E7D0F8082812F4807F00EB4311D1F884
:1019F40000290CBF42F0005242F08052C1F8002985
:101A0400E6E7D0F8084814F4807FD3F800490CBF07
:101A140044F0005444F08054C3F8004900928B8A87
:101A24000A78C968FFF714FF5FE78D68DCF8106077
:101A34002C44013CB4FBF5F41FFA84FE124D05EA74
:101A4400C4443443CCF81040DCF810508C6804FBD8
:101A54000EF4C4F312042C43CCF8104038E7CA68DF
:101A6400002A3FF438AFCCF8142034E7D0F8082823
:101A740012F4807FD3F8002B0CBF42F0005242F0E6
:101A84008052C3F8002B2AE70000F81F70B5064601
:101A940002F003055FEA920C1BD00A46002300F50E
:101AA400805EDEF8004042F8044B01339C45F8D1D7
:101AB40001EB830065B106F58056346841190023B3
:101AC40024FA03F200F8012B08338842F8D10846BF
:101AD40070BD0846EEE70B784A78012A14D000EB73
:101AE4004310D0F8002B002A06DB2BB1D0F8003BC2
:101AF40023F08043C0F8003BD0F8003B43F40013CC
:101B0400C0F8003B0020704700EB4310D0F80029D8
:101B1400002A06DB2BB1D0F8003923F08043C0F84B
:101B24000039D0F8003943F40013C0F80039E9E76C
:101B34000B784A78012A0ED000EB4310D0F8003B12
:101B440023F40013C0F8003BCB78023BDBB2012B3B
:101B540015D90020704700EB4310D0F8003923F466
:101B64000013C0F80039CB78023BDBB2012BF0D86C
:101B7400D0F8003943F08053C0F80039E9E7D0F8D1
:101B8400003B43F08053C0F8003BE2E7D0F8003854
:101B940023F4FE63C0F80038D0F80038090101F4DA
:101BA400FE611943C0F8001800207047D0F8003EC9
:101BB40023F00303C0F8003ED0F8043823F00203F6
:101BC400C0F8043800207047D0F8003E23F0030327
:101BD400C0F8003ED0F8043843F00203C0F80438DB
:101BE400002070474269806910407047D0F8183867
:101BF40000F50060C0691840000C7047D0F8183830
:101C040000F50060C069184080B2704700EB4111D4
:101C1400D1F8082B00F5006040691040704710B4FB
:101C2400D0F81048D0F8343800EB411000F51060BB
:101C3400806801F00F01CB40DB01DBB22343184085
:101C440010BC7047406900F001007047D0F80039BB
:101C540023F4FF6323F00703C0F80039D0F80438F5
:101C640043F48073C0F804380020704710B4046C47
:101C7400144B9C4203D9D0F8003B002B16DB002404
:101C8400C0F8104BD0F8104B44F40024C0F8104BAB
:101C9400D0F8104B44F01804C0F8104BD0F8104B97
:101CA40044F0C044C0F8104B012902D0002010BCFD
:101CB4007047C0F8142BD0F8003B43F08023C0F8E1
:101CC400003BF3E70A30544F014B1860704700BFE4
:101CD40000000020D0F8BC3283B110B5D0F8B8426F
:101CE40094F80002FF2807D09B6894F8012221464B
:101CF4009847FF2384F80032002010BD002070476D
:101D0400432303800048704744000020432303809A
:101D14000048704788000020432303800048704730
:101D2400D80000200A23038000487047CC0000201C
:101D340038B50446D0F8B85200F0BAFFC5F80C0222
:101D4400D4F8B8324BB1D4F8BC32DB6805F5037172
:101D5400D5F804029847002038BD0220FCE7D0F8EB
:101D6400B82212B301EB810300EB8303DB69F3B107
:101D740010B5D0F8C042C1EBC10C04EB8C04646C08
:101D8400B3FBF4FC04FB1C331BB10020C2F81402A7
:101D940010BD01EB810300EB83030024DC612346C7
:101DA400224600F0C5FF2046F2E7022070470020DB
:101DB400C2F814027047F0B583B006460C46D0F85A
:101DC400B87200238DF80730ADF804300B7813F0A7
:101DD400600527D0202D53D1CA88DAB113F0800FC3
:101DE4000CD0D0F8BC329B68394660789847E288BA
:101DF4003946304600F05CFD002544E04B7887F816
:101E04000032CB8887F80132CA88394600F065FD74
:101E1400002538E0D0F8BC329B6800224878984707
:101E2400002530E04F780A2F14D00B2F20D01FB19B
:101E340000F050FA022526E090F89C32032B03D0E0
:101E440000F048FA02251EE0022201A900F030FD4C
:101E54003D4618E090F89C32032B03D000F03AFA88
:101E6400022510E001220DF1070100F021FD0AE036
:101E740090F89C32032B06D000F02CFA022502E0E5
:101E840000F028FA0225284603B0F0BD38B5044610
:101E9400812100F02DFF0025E5620121204600F09C
:101EA40027FFC4F86C518221204600F021FF2564ED
:101EB400D4F8B8324BB1D4F8BC325B689847D4F844
:101EC400B80200F09BFFC4F8B852002038BD38B502
:101ED4000446037CCBBB4FF400730222812100F043
:101EE400FCFE0125E5624FF40073022229462046D8
:101EF40000F0F3FEC4F86C5108230322822120462B
:101F040000F0EBFE012323644FF4077000F06EFF32
:101F14000546C4F8B8024FF40772002100F076FFBA
:101F2400D4F8BC321B6898470023C5F81432C5F8AE
:101F34001832237CCBB94FF40073D5F80422012165
:101F4400204600F0FDFE002038BD402302228121FE
:101F540000F0C3FE0125E562402302222946204603
:101F640000F0BBFEC4F86C51C6E74023D5F8042248
:101F74000121204600F0E4FEE5E719B1C0F8BC12E7
:101F84000020704702207047D0F8B832C3F8081216
:101F9400C3F8102200207047D0F8B832C3F80412F6
:101FA4000020704710B5D0F8B82292B1047C44B92F
:101FB4004FF40073D2F80422012100F0C1FE204640
:101FC40010BD4023D2F80422012100F0B9FE002400
:101FD400F5E70224F3E798B108B50346D0F8B40254
:101FE40010B10020C3F8B40209B1C3F8B012012142
:101FF40083F89C121A70184600F018FE002008BDE1
:102004000220704719B1C0F8B412002070470220B2
:10201400704708B500F059FE002008BD08B5D0F897
:10202400B4322BB11B689847002818BF022008BDA2
:102034000220FCE708B5D0F8B4325B68984700206A
:1020440008BD38B5044600F52A75284600F02EF977
:102054000123C4F89432B4F8AE32C4F8983294F838
:10206400A81201F01F03012B0ED0022B11D02BB1AB
:1020740001F08001204600F043FE03E0294620469B
:1020840000F032F9002038BD2946204600F0E6FA77
:10209400F8E72946204600F011FBF3E738B504467B
:1020A4000D4681BB1346D0F89422032A03D0052A97
:1020B40022D0084631E0D0F86011D0F86421914272
:1020C4000BD9891AC0F860118A428CBF8AB292B2C5
:1020D400194600F011FC28461FE0D0F8B4321B6901
:1020E4001BB190F89C22032A04D0204600F00CFC7B
:1020F400284612E09847F8E70021C0F8941200F04F
:10210400FFFD284609E0D0F8B4329B6933B190F85A
:102114009C22032A04D19847002038BD0220FCE702
:102124000220FAE738B504460D46002952D1134679
:10213400D0F89422022A0BD032F0040302D1802179
:1021440000F0DEFD94F8A032012B3ED0284638BDC5
:10215400016A426A91421BD8C169B1FBF2F302FBE6
:1021640013132BB98A4203D8D0F8983299421CD35E
:10217400D4F8B432DB681BB194F89C22032A21D032
:102184008021204600F0BCFD204600F0C8FBD9E7C2
:102194008A1A026292B2194600F097FB00231A468B
:1021A4001946204600F0CCFDCCE70022114600F091
:1021B4008CFB0021C4F898120B460A46204600F016
:1021C400BFFDBFE720469847DAE7002384F8A03232
:1021D4002846BCE7D0F8B4325B6933B190F89C224E
:1021E400032A04D198470020B1E70220AFE7022078
:1021F400ADE770B5044640230022114600F06DFDA2
:102204000125C4F858514026C4F8646133460022BD
:102214008021204600F061FDA561666284F89C522D
:102224000023C4F894326360C4F8A432D4F8B832FA
:102234002BB1D4F8B4325B680021204698470020C3
:1022440070BD01740020704790F89C3280F89D3274
:10225400042380F89C320020704790F89C32042BB1
:1022640004BF90F89D3280F89C320020704708B576
:1022740090F89C32032B01D0002008BDD0F8B43272
:10228400DB69002BF8D09847F6E700207047002060
:1022940070470020704708B5012280F89C22D0F8CE
:1022A400B422526801799047002008BD0B7803706E
:1022B4004B784370CA788B7803EB022343804A79C6
:1022C4000B7903EB02238380CA798B7903EB022316
:1022D400C380704710B50446802100F011FD002131
:1022E400204600F00DFD10BD30B583B005460C4608
:1022F4000B7803F06003202B05D0402B03D05BB197
:10230400FFF7E8FF05E0D5F8B4329B68214628467C
:102314009847002003B030BD4B78092B00F2988118
:10232400DFE813F05F01840196017B019601C90087
:102334000A0096014001EE000023ADF806304A88F9
:10234400130A013B062B00F2A480DFE803F0041813
:102354002CA2A2869300D0F8B0321B680DF10601BE
:10236400007C9847BDF80620002A00F09F80E3888F
:10237400002B40F09280284600F0C6FAC9E7037C9F
:1023840043B9D0F8B4329B6A0DF106009847022392
:102394004370E7E7D0F8B432DB6A0DF106009847E2
:1023A40002234370DEE7D2B2052A52D8DFE802F0F6
:1023B40003101D2A3744D0F8B0325B6823B10DF105
:1023C4000601007C9847CDE72146FFF783FFA0E78D
:1023D400D0F8B0329B6823B10DF10601007C984718
:1023E400C0E72146FFF776FF93E7D0F8B032DB6809
:1023F40023B10DF10601007C9847B3E72146FFF7AE
:1024040069FF86E7D0F8B0321B6923B10DF10601EC
:10241400007C9847A6E72146FFF75CFF79E7D0F8F0
:10242400B0325B6923B10DF10601007C984799E74E
:102434002146FFF74FFF6CE7D0F8B0329B6923B118
:102444000DF10601007C98478CE72146FFF742FF17
:102454005FE72146FFF73EFF5BE7037C33B9D0F823
:10246400B4325B6B0DF1060098477BE72146FFF71A
:1024740031FF4EE7037C43B9D0F8B4321B6B0DF146
:1024840006009847072343706CE72146FFF722FFB5
:102494003FE72146FFF71EFF3BE79A4228BF1A4653
:1024A400ADF806200146284600F002FAE388002B26
:1024B4007FF42FAF5FE78B88EBB9CB88DBB94B8810
:1024C4007F2B18D890F89C22032A0DD0DCB280F818
:1024D4009E42214600F024FC284600F015FA34B14F
:1024E400022385F89C3214E7FFF7F4FE11E7012379
:1024F40085F89C320DE721462846FFF7EBFE08E7F6
:102504008B78554A1370012B0DD890F89C22022A1F
:102514000CD0032A20D0FFF7DDFE4F4B1978284654
:10252400FFF788FDF5E6FFF7D5FEF2E68BB1012152
:102534004160032380F89C32FFF770FD022803D02A
:10254400284600F0E1F9E4E621462846FFF7C2FEFA
:10255400DFE600F0D9F9DCE68BB1416801291ED031
:10256400C9B2FFF767FD3C4B197869602846FFF74D
:1025740055FD02280ED0284600F0C6F9C9E602230C
:1025840080F89C3200214160FFF754FD284600F09A
:10259400BBF9BEE621462846FFF79CFEB9E600F0EB
:1025A400B3F9B6E6CB88012B0AD190F89C32022B02
:1025B40009D9032B08D10122011D00F079F9A8E6FD
:1025C400FFF788FEA5E623B921462846FFF782FED9
:1025D4009FE60146002341F8083F012200F068F914
:1025E40097E690F89C32013B022B13D8CB88022B40
:1025F4000DD10123C360D0F8A4320BB10323C3600F
:10260400022205F10C01284600F052F981E6FFF799
:1026140061FE7EE6FFF75EFE7BE64B88012B7FF4CE
:1026240078AEC0F8A43200F06FF972E690F89C32EC
:10263400013B022B09D84B88012B7FF46AAE00239F
:10264400C0F8A43200F060F963E6FFF743FE60E6E9
:10265400FFF740FE5DE600BF0002002038B50546E6
:102664000C460B7803F06002402A06D013F0400FAA
:1026740003D0FFF72FFE002038BD95F89C32013BB4
:10268400022B16D82379012B0ED8D5F8B4329B68C7
:10269400214628469847E388002BECD10028EAD14C
:1026A400284600F031F9E6E721462846FFF712FEF6
:1026B400E1E721462846FFF70DFEDCE738B504467E
:1026C4000B7803F06003202B05D0402B03D04BB1D3
:1026D400FFF700FE04E0D4F8B4329B682046984724
:1026E400002038BD8A88D0B24B78012B31D0032B1F
:1026F40005D0002B56D02046FFF7ECFDF0E794F808
:102704009C32022B05D0032B13D02046FFF7E2FDA9
:10271400E6E710F07F0F08D00146204600F0F0FAFB
:102724008021204600F0ECFADAE72046FFF7D2FDDC
:10273400D6E74B8823B910F07F0F01D0CB881BB1AB
:10274400204600F0E1F8CBE70146204600F0D8FA35
:10275400F6E794F89C32022B05D0032B13D02046C5
:10276400FFF7B8FDBCE710F07F0F08D00146204604
:1027740000F0C6FA8021204600F0C2FAB0E72046F5
:10278400FFF7A8FDACE74B88002BA9D110F07F0F11
:1027940003D1204600F0B8F8A2E70146204600F035
:1027A400B7FAF6E794F89C32022B05D0032B18D025
:1027B4002046FFF78FFD93E710F07F0F03D02046EC
:1027C400FFF788FD8CE712F0800F14BF04F11401A9
:1027D40004F5AA7100230B600222204600F068F879
:1027E4007EE712F0800F1BD100F00F0303EB83038D
:1027F40004EB8303D3F8583133B300F07F0303EBC6
:10280400830304EB830505F5AA7510F07F0F1FD130
:1028140000232B6002222946204600F049F85FE796
:1028240000F00F0303EB830304EB83039B693BB1C9
:1028340000F07F05013505EB850504EB8505E4E72C
:102844002046FFF747FD4BE72046FFF743FD47E7E8
:102854000146204600F01CFA10B101232B60D9E791
:1028640000232B60D6E710B310B58446037843B138
:10287400C0F1010E00EB0E03DBB210F8014F002C87
:10288400F8D15B00023313800B7003234B709CF868
:10289400000058B1022300245A1CD2B2C854023397
:1028A400DBB28C541CF8010F0028F5D110BD704721
:1028B40008B513460222C0F89422C36103620A4693
:1028C400002100F035FA002008BD08B513460A4679
:1028D400002100F02DFA002008BD08B5134603229C
:1028E400C0F89422C0F85C31C0F860310A46002177
:1028F40000F026FA002008BD08B513460A46002158
:1029040000F01EFA002008BD08B50423C0F8943274
:1029140000231A46194600F00BFA002008BD08B53A
:102924000523C0F8943200231A46194600F008FA29
:10293400002008BD08B500220F491048FFF74BFBE3
:1029440070B90F490D48FFF75DFB60B90D490B489D
:10295400FFF713FB50B90948FFF75BFB48B908BD03
:10296400FDF7AEFCEDE7FDF7ABFCEFE7FDF7A8FCE8
:10297400F1E7FDF7A5FCF2E72C010020040200209A
:102984000C0000201C01002000207047002070472C
:1029940010B50146044C2046FFF7FEFA2046FFF727
:1029A40001FB002010BD00BF0402002010B5064C3E
:1029B400002206492046FFF7E7FA05492046FFF7BB
:1029C400EBFA002010BD00BF04020020C80C002058
:1029D400C804002012230B800048704748010020DF
:1029E40004230B80004870475C010020B2B14B1CEB
:1029F40002F1FF3C5FFA8CFC033101EB4C014FF018
:102A0400000C020FB0F1204F34BF3032373203F8DC
:102A1400012C000103F802CB8B42F2D17047000075
:102A240038B51A230B800C4BD3F8100AD3F8183A94
:102A3400C01801D1094838BD074BD3F8145A074CC4
:102A44000822A11CFFF7D2FF042204F11201284638
:102A5400FFF7CCFFEEE700BF0070FF1F600100200E
:102A640008B50A4602490348FFF7FDFE004808BDC1
:102A7400C81400204830000810B50A46034C21460B
:102A84000348FFF7F0FE204610BD00BFC814002025
:102A94006030000808B50A4602490348FFF7E3FE20
:102AA400004808BDC81400207430000808B50A4660
:102AB40002490348FFF7D7FE004808BDC8140020A8
:102AC4008030000830B589B0002303930493059344
:102AD400069307930368B3F1A04F01D009B030BD4A
:102AE40000250195164C236B43F001032363236BEC
:102AF40003F001030193019B4FF4C053039302239A
:102B04000493032306930A23079303A90D48FDF7AF
:102B1400DDFC636B43F0800363630295636C43F4F1
:102B240080436364636C03F480430293029B2A46EC
:102B340029464320FDF772FC4320FDF7A5FCCDE7B1
:102B4400003802400000024008B500F57171D0F869
:102B5400FC03FFF776FA08BD08B5C1EBC10300EB2F
:102B64008303D3F80822D0F8FC03FFF797FA08BDD3
:102B740008B5C1EBC10300EB83039A6CD0F8FC03E6
:102B8400FFF7D0FA08BD08B5D0F8FC03FFF76FFBD8
:102B940008BD10B50446C3683BB1022B01D1012125
:102BA40004E0FDF78DFB012100E00021D4F8FC03D3
:102BB400FFF747FBD4F8FC03FFF71BFB10BD000035
:102BC40010B50446D0F8FC03FFF73EFB2268D2F8A8
:102BD400003E43F00103C2F8003E236A23B1034AD6
:102BE400136943F00603136110BD00BF00ED00E05C
:102BF40008B5D0F8FC03FFF730FB08BD08B5D0F8E2
:102C0400FC03FFF744FB08BD08B5D0F8FC03FFF74D
:102C14003CFB08BD08B5D0F8FC03FFF73AFB08BD40
:102C240008B5D0F8FC03FFF736FB08BD02780AB1FB
:102C34000020704710B503461448C0F8FC33C3F8AD
:102C4400C0024FF0A0430360042343600222C26029
:102C5400002303618261C3610362C3620363FDF7FE
:102C64004FFD80B9094C80212046FEF793FA40229B
:102C740000212046FEF76AFA802201212046FEF751
:102C840065FA002010BDFDF71BFBEBE7C81600201A
:102C9400D0F8C03211F0800F01F07F01C1EBC10107
:102CA40003EB810114BF91F83E0091F8FE017047D7
:102CB40008B5D0F8C002FEF797F908BD20B1022884
:102CC40014BF022001207047704708B5D0F8C00235
:102CD400FDF7ADFDFFF7F2FF08BD08B594461A46AF
:102CE4006346D0F8C002FEF7D9F8FFF7E7FF08BD46
:102CF40008B5D0F8C002FEF712F9FFF7DFFF08BDF0
:102D040008B5D0F8C002FEF7A6F9FFF7D7FF08BD53
:102D140008B5D0F8C002FEF7E0F9FFF7CFFF08BD11
:102D240008B5D0F8C002FEF7A5F8FFF7C7FF08BD45
:102D340008B5D0F8C002FEF760F9FFF7BFFF08BD81
:102D440008B5D0F8C002FEF721F9FFF7B7FF08BDB8
:102D5400DFF834D00D480E490E4A002302E0D4585F
:102D6400C4500433C4188C42F9D30B4A0B4C0023CF
:102D740001E013600432A242FBD3FDF7D3FA00F062
:102D840011F8FDF77FFA70470000022000000020D0
:102D9400E001002098300008E0010020DC1A002047
:102DA400FEE7000070B500260C4D0D4C641BA4100A
:102DB400A64209D100F03AF900260A4D0A4C641BD8
:102DC400A410A64205D170BD55F8043B98470136BE
:102DD400EEE755F8043B98470136F2E790300008D7
:102DE400903000089030000894300008024B0146EF
:102DF400186800F07BB800BF7C010020024B01463C
:102E0400186800F00BB800BF7C01002003460244A0
:102E1400934200D1704703F8011BF9E738B5054622
:102E2400002940D051F8043C0C1F002BB8BFE41813
:102E340000F0E0F81C4A136833B963601460284654
:102E4400BDE8384000F0DCB8A34208D92068211856
:102E54008B4201BF19685B6809182160EDE71A46C7
:102E64005B680BB1A342FAD911685018A0420BD188
:102E740020680144501883421160E0D118685B68EF
:102E8400014411605360DAE702D90C232B60D6E7C2
:102E9400206821188B4201BF19685B6809182160FA
:102EA40063605460CBE738BDC81A002070B50E4E7D
:102EB4000C463168054611B900F08CF830602146A3
:102EC400284600F087F8431C0AD0C41C24F00304ED
:102ED400A04207D0211A284600F07CF8013001D125
:102EE4004FF0FF34204670BDCC1A00202DE9F0418C
:102EF400CD1C25F0030508350C2D38BF0C25002DFD
:102F0400074601DBA94205D90C2300263B60304665
:102F1400BDE8F0812E4E00F06DF833681C4634BBDA
:102F240029463846FFF7C2FF431C04464DD1346896
:102F34002646002E40D123683146384604EB030868
:102F440000F048F880453AD1216803356D1A25F020
:102F5400030508350C2D38BF0C2538462946FFF7E4
:102F6400A5FF01302BD023682B4423600EE0226898
:102F7400521B1ED40B2A16D96119A342256018BF0F
:102F84005960636808BF316062514B60384604F190
:102F94000B0600F035F826F00706231DF21AB6D00A
:102FA4009B1BA350B3E76268A3420CBF32605A6014
:102FB400ECE723466468B2E734467668B9E70C2345
:102FC40038463B6000F01CF8A1E72560DEE700BF4F
:102FD400C81A002038B50023054D044608462B6066
:102FE40000F016F8431C02D12B6803B1236038BDEE
:102FF400D01A0020014800F009B800BFD41A0020FC
:10300400014800F004B800BFD41A0020704770478C
:10301400044A05491368002B08BF0B461844106086
:1030240018467047D81A0020E01A0020F8B500BFEF
:10303400F8BC08BC9E467047F8B500BFF8BC08BC95
:043044009E467047ED
:1030480053544D3332205669727475616C20436F46
:103058006D506F727400000053544D6963726F6550
:103068006C656374726F6E69637300004344432038
:10307800436F6E666967000043444320496E746578
:0830880072666163650000003F
:04309000A90100088A
:0430940085010008AA
:103098000024F4000100000010000000D31E000806
:1030A800911E0008BB1D000800000000D91C000884
:1030B800631D0008351D0008000000000000000026
:1030C80000000000111D0008051D00081D1D000856
:1030D800291D000809024300020100C0320904004A
:1030E800000102020100052400100105240100016D
:1030F80004240202052406000107058203080010C3
:1031080009040100020A000000070501024000004E
:10311800070581024000000009024300020100C0C7
:103128003209040000010202010005240010010513
:103138002401000104240202052406000107058277
:103148000308001009040100020A00000007050135
:103158000200020007058102000200000A060002C0
:10316800000000400100000009074300020104C0FC
:1031780032090400000102020100052400100105C3
:103188002401000104240202052406000107058227
:103198000308001009040100020A000000070501E5
:1031A800024000000705810240000000B129000824
:1031B8008D2900089129000895290008D9290008B7
:1031C800E52900087D2A0008652A0008252A000844
:1031D800992A0008B12A00081201000202020040E0
:1031E800830440570002010203010000040309049C
:1031F8001A030000000000000000000000000000AA
:103208000000000000000000000000008001002015
:1032180000000000000000000000000000000000A6
:103228000000000000000000000000000000000096
:103238000000000000000000000000000000000086
:103248000000000000000000000000000000000076
:103258000000000000000000000000000000000066
:103268000000000000000000000000000000000056
:0400000508002D556D
:00000001FF
