:020000040800F2
:10000000A87A0020690200081F140008691300087C
:100010001D140008010600087D2D000800000000E6
:100020000000000000000000000000009D15000816
:1000300049060008000000009B1500089F150008F5
:10004000830200088302000883020008830200087C
:10005000830200088302000883020008830200086C
:10006000830200088302000883020008830200085C
:10007000830200088302000883020008830200084C
:10008000830200088302000883020008830200083C
:10009000830200088302000883020008830200082C
:1000A000830200088302000883020008830200081C
:1000B000830200088302000883020008830200080C
:1000C00083020008830200088302000883020008FC
:1000D00083020008830200088302000883020008EC
:1000E00083020008830200088302000883020008DC
:1000F00083020008830200088302000883020008CC
:1001000083020008830200088302000883020008BB
:1001100083020008830200088302000883020008AB
:10012000830200088302000883020008830200089B
:10013000830200088302000883020008830200088B
:1001400083020008830200088302000821140008CB
:10015000830200088302000883020008830200086B
:10016000830200088302000883020008830200085B
:1001700083020008830200088302000800000000D8
:100180008302000800F002F800F05EF80AA090E890
:10019000000C82448344AAF10107DA4501D100F042
:1001A00053F8AFF2090EBAE80F0013F0010F18BFB1
:1001B000FB1A43F001031847002C0000202C00001C
:1001C0000A444FF0000C10F8013B13F0070408BF7D
:1001D00010F8014B1D1108BF10F8015B641E05D01B
:1001E00010F8016B641E01F8016BF9D113F0080FD0
:1001F0001EBF10F8014BAD1C0C1B09D16D1E58BF62
:1002000001F801CBFAD505E014F8016B01F8016B98
:100210006D1EF9D59142D6D370470000002300240B
:1002200000250026103A28BF78C1FBD8520728BF06
:1002300030C148BF0B6070471FB59DE8030000F058
:1002400001F91FBD10B510BD00F058F91146FFF7B8
:10025000F3FF02F0A4FD00F076F903B4FFF7F2FF1C
:1002600003BC00F0A7F9000009488047094800478F
:10027000FEE7FEE7FEE7FEE7FEE7FEE7FEE7FEE756
:10028000FEE7FEE704480549054A064B70470000B3
:100290006D16000885010008A81A0020A87A002021
:1002A000A83A0020A83A002070B5064600F0AEF843
:1002B000056806F10B0020F00704B4429CBF002043
:1002C00070BD2B466A68BAB11068A04210D304F121
:1002D000080188423CBF5068586007D35168101924
:1002E00041601168091B016058601460101D70BDE9
:1002F00013465268002AE7D12146284600F08EF8BE
:100300000028DED170BD70B50446051F00F07EF8F0
:100310000068002C14BF446870BD002C18BFAC42AC
:100320003CBF20466468F8D301680A18AA4218BF87
:10033000456003D12A6805461144016028684119C7
:10034000A1421CBF6C6070BD61686960216808448F
:10035000286070BD10B5203AC0F00B80B1E818508D
:10036000203AA0E81850B1E81850A0E81850BFF49F
:10037000F5AF5FEA027C24BFB1E81850A0E818503E
:1003800044BF18C918C0BDE810405FEA827C24BF92
:1003900051F8043B40F8043B08BF7047D20728BF20
:1003A00031F8023B48BF11F8012B28BF20F8023B6F
:1003B00048BF00F8012B70474FF0000200B513460C
:1003C00094469646203922BFA0E80C50A0E80C5075
:1003D000B1F12001BFF4F7AF090728BFA0E80C5026
:1003E00048BF0CC05DF804EB890028BF40F8042B1F
:1003F00008BF704748BF20F8022B11F0804F18BF8C
:1004000000F8012B704770477047704700487047ED
:10041000501A0020704770477047704738B504463F
:100420000A4600206946AFF30080002808BF38BDA7
:1004300002460099204600F03FF8012038BD012017
:1004400000F054B8F8B5AFF30080054600200C4624
:10045000102000BF0646A819A0420DD932466946B1
:100460000020AFF30080070008BF00F03FF80098BD
:10047000A04218BF0546C419FFF7C8FF056007462C
:10048000F01D20F007004619284600F00AF8B44293
:1004900008BFF8BDA21B31463868BDE8F84000F03F
:1004A0000BB800210160C0E90110704710207047AF
:1004B00000487047481A0020034640688C460028D0
:1004C00018BF88423CBF03464068F8D318681844F8
:1004D000884207D00CF1030020F00700001D411AEC
:1004E000521A0146081D0A60FFF70DBF10B500F053
:1004F00039F8BDE8104000F02FB870477546FFF797
:10050000D7FFAE4605006946534620F007008546F2
:1005100018B020B5FFF7B6FEBDE820404FF000064A
:100520004FF000074FF000084FF0000B21F00701DB
:10053000AC46ACE8C009ACE8C009ACE8C009ACE81E
:10054000C0098D46704710B50446AFF300802046C1
:10055000BDE81040FFF781BE002801D000F02AB8A6
:100560007047000010B5012805D0002103A000F05D
:1005700027F8012010BD09A1F8E7000053494752B0
:10058000544D454D3A204F7574206F662068656163
:1005900070206D656D6F7279000000003A2048652B
:1005A0006170206D656D6F727920636F7272757006
:1005B0007465640001491820ABBEFEE72600020006
:1005C00070B505460C460A2000E06D1C00F011F8DD
:1005D00035B128780028F8D102E0641C00F009F851
:1005E00014B120780028F8D1BDE870400A20AFF39C
:1005F000008008B569468DF800000320ABBE08BD39
:10060000FEE70020704700207047000010B5002270
:100610000449054801F020F90449034801F016F99E
:10062000002010BD480E0020840100204806002054
:1006300010B50146034801F009F9024801F0EAF853
:10064000002010BD84010020704772B6FEE7000054
:1006500031B500F053F9009C0546601C02D00448F7
:100660000078044400F04AF9401BA042FAD338BD98
:10067000600000202DE9F04FDFF85092002309F1CF
:10068000040A012603250AF1040B85B00F270BF19C
:10069000040E12E1224606FA03F422407ED091F8BD
:1006A00004C00CF0030CBCF1010F02D0BCF1020F2E
:1006B00026D1D0F80880CDF800804FEA430805FA2B
:1006C00008FCCDF81080DDF8008028EA0C08CDF891
:1006D0000080D1F80CC0DDF810800CFA08FCDDF8C1
:1006E00000804CEA080CC0F808C0D0F804C02CEA1E
:1006F000040C0C79C4F300149C4044EA0C044460DC
:100700000C79E443A40712D0C4684FEA430CCDF837
:1007100008C005FA0CFC24EA0C04D1F80880DDF8C6
:1007200008C008FA0CF848EA0408C0F80C800C79F4
:1007300004F00304022C16D1DC0800EB840CCDF885
:1007400008C0DCF820C05C074FEAD46807FA08F458
:100750002CEA040C0C6904FA08F444EA0C04DDF8F1
:1007600008C0CCF8204004684FEA430805FA08FCAA
:1007700024EA0C0491F804C00CF0030C0CFA08FCF9
:100780004CEA040CC0F800C04C6814F4403F05D09B
:100790004F4CD4F800C04CF4804C00E08CE0C4F81E
:1007A00000C0246823F0030C04F480440094494CF6
:1007B00064440294D4F808484FEA837C4FEA1C78DA
:1007C00007FA08FC24EA0C04DFF80CC1604502D1EA
:1007D0004FF0000C39E0DFF804C1604502D14FF062
:1007E000010C32E0DFF8F8C0604502D14FF0020C96
:1007F0002BE0DFF8F0C0604502D14FF0030C24E09D
:10080000DFF8E4C0604502D14FF0040C1DE0DFF8D2
:10081000DCC0604502D14FF0050C16E0DFF8D0C017
:10082000604502D14FF0060C0FE0DFF8C8C060450C
:1008300002D14FF0070C08E0DFF8BCC0604502D1E0
:100840004FF0080C01E04FF0090C0CFA08FC4CEAE0
:10085000040C029CC4F808C8D9F80040CC46D1F872
:10086000048094435FEAC83800D51443CCF80040B4
:10087000DAF80040D446D1F8048094435FEA88381F
:1008800000D51443CCF80040DBF80040DC46D1F83A
:10089000048094435FEAC82800D51443CCF8004094
:1008A000DEF80040F446D1F8048094435FEA8828DB
:1008B00000D51443CCF800405B1C0A681446DA40AB
:1008C0007FF4E8AE05B0BDE8F08F0000003C0140C9
:1008D0004438024000300140000002400004024061
:1008E00000080240000C02400010024000140240C8
:1008F00000180240001C02400020024001488068AD
:1009000070470000600000200248816802781144AE
:1009100081607047600000200B4810B5016841F409
:1009200000710160016841F480610160016841F477
:1009300080710160032000F06FF80F2000F006F8CE
:1009400000F024F8002010BD003C024070B50D4DB1
:1009500004464FF47A712878B1FBF0F00A4909682F
:10096000B1FBF0F000F0ECFC48B9102C07D20022EB
:100970002146501E00F030F800206C6070BD012050
:1009800070BD0000600000206C0000200A4808B51F
:10099000016841F480410160006800F480400090EB
:1009A0000548001F016841F080510160006800F0B7
:1009B0008050009008BD000044380240002809DB48
:1009C00000F01F02012191404009800000F1E02069
:1009D000C0F8001170470000F0B40E4B1B680C46C5
:1009E000C3F30223C3F10705042D00D90425191D03
:1009F000072901D2002300E0DB1E012606FA05F1DB
:100A0000491E214099409E40761E16403143F0BC5D
:100A100002F0B5B90CED00E0064900F007020868E5
:100A20004FF6FF03184040EA0220034A10430860D3
:100A3000704700000CED00E00000FA05006841621C
:100A400000207047F0B50368586A39B19C6A4FF4CA
:100A5000827600EB144400204D1E0AE040EA02407A
:100A600098620FE006EB8007DF59401C04EB174447
:100A7000C0B2A842F6D344EA02404FF4807202EBBF
:100A8000810158500020F0BDD0F8FC0301F079B985
:100A9000C1EBC10200EB8202D0F8FC03926C01F0C2
:100AA000CCB8C1EBC10200EB8202D0F8FC03D2F853
:100AB000082201F025B9D0F8FC0301F064B970B543
:100AC00004460B0601F00F00C0EBC00104EB8101EE
:100AD0004FF001024FF0000503D581F83D203C3175
:100AE00003E081F8FD5101F5FE71087094F8BC0334
:100AF000012808D084F8BC23206801F0ADFC84F8FC
:100B0000BC53002070BD022070BD70B5044601F0DA
:100B10000F006268904201D9012070BD0B0601F000
:100B20000F01C1EBC10104EB81014FF001024FF055
:100B3000000503D581F83D203C3103E081F8FD51EB
:100B400001F5FE718D70087094F8BC03012808D07F
:100B500084F8BC23206801F079FE84F8BC5300209F
:100B600070BD022070BD01F00F01C1EBC10100EBAF
:100B70008100D0F8140270472DE9F04104460F06B9
:100B800001F00F00C0EBC00104EB81014FF0010642
:100B90004FF0000503D581F83D603C3103E081F85A
:100BA000FD5101F5FE7108708A60CB704A7802B180
:100BB000C880022B00D10D7194F8BC03012809D024
:100BC00084F8BC63206801F0A7FB284684F8BC5376
:100BD000BDE8F0810220FBE770B50C4601F00F057F
:100BE000C5EBC50100EB8101C1F81032C1F8082244
:100BF0000023C1F8143281F8FD3181F8FC510369FA
:100C000001F5FE71012B00D10A612207027C006808
:100C100003D001F073FE002070BD01F05FFDFAE724
:100C200070B504460D4601F00F006168884201D995
:100C3000012070BD29064FF000064FF0010207D5D4
:100C4000C0EBC00104EB810181F83D203C3107E09D
:100C5000C5EBC50104EB810181F8FD6101F5FE7171
:100C60008A70087094F8BC03012807D084F8BC236C
:100C7000206801F017FE280702D007E0022070BDAF
:100C8000217C04F57172206801F0B4FD84F8BC6326
:100C9000002070BD70B50C4601F00F05C5EBC50115
:100CA00000EB81010B658A6400234B65012381F809
:100CB0003D3001F83C5F0369012B00D10A61220736
:100CC000027C006803D001F019FE002070BD01F025
:100CD00005FDFAE72DE9FC5F05680446284601F0AA
:100CE00036FF00287ED1206801F05DFF002879D012
:100CF000206801F058FF800704D52068416901F0A1
:100D000002014161206801F04EFFC10604F57170D7
:100D1000009034D52068816921F0100181612F6A2B
:100D200007F00F00C0EBC00004EB8006C7F34340A0
:100D300006F5FE76022802D0062811D01AE047F602
:100D4000F070074216D0C7F30A1217462846F1681A
:100D500001F02DFFF0683844F060B069384408E0D5
:100D600008222846009901F022FFB069C7F30A1152
:100D70000844B0612168886940F0100088612068EB
:100D800001F011FF00034FF001094FF0080A4FF086
:100D9000100B5AD50026206801F0E4FE074652E009
:100DA000F8074ED0F1B2206801F0F5FE8046C0078A
:100DB00007D005EB4611C1F8089B3146204600F0EC
:100DC00035FB5FEA087024D505EB4611C1F808AB86
:100DD0002068026C00EB46100192D0F8081BC34B50
:100DE0009A4200E07FE105D9090403D54FF40041A0
:100DF000C0F8081B204600F069FABC4901988842F7
:100E000007D92069012804D120680121009A01F046
:100E1000F1FC5FEAC86003D505EB4611C1F808BBD9
:100E20005FEA886004D505EB46112020C1F8080B65
:100E30005FEA884005D505EB46114FF40050C1F834
:100E4000080B7F08761C002FAAD1206801F0ABFEAA
:100E500040035BD5206801F07EFE0746002653E084
:100E6000F8074FD0F1B2206801F083FE8046C0073A
:100E700023D006F00F0209FA02F0D5F83428824395
:100E8000C5F8342805EB4610C0F8089920690128F8
:100E90000FD1C6EBC60004EB8000D0E9111211445B
:100EA000816436B9206D20B920680121009A01F0D3
:100EB000A1FCF1B22046FFF7EBFD5FEA087003D515
:100EC00005EB4611C1F808A95FEAC86003D505EB38
:100ED0004611C1F808B95FEA486004D505EB461130
:100EE0004020C1F808095FEA887004D505EB461177
:100EF0000220C1F808095FEA086003D531462046A0
:100F000000F0FAFA7F08761C002FA9D1206801F0C2
:100F10004AFE00280DDAD5F8040820F00100C5F8D3
:100F20000408204600F0B6F92068416901F000414C
:100F30004161206801F037FE00050BD5D5F808089F
:100F4000C00702D0204600F0DDF92168486900F4AE
:100F500000604861206801F026FEC00462D5D5F823
:100F6000040820F00100C5F804081021206801F0F1
:100F7000CFFD002121E000BF05EB41104FF67F328D
:100F8000C0F80829D0F8003923F40013C0F800395C
:100F9000D0F8003943F00063C0F80039C0F8082BDE
:100FA000D0F8002B22F40012C0F8002BD0F8002B50
:100FB00042F00062C0F8002B491C60688842DBD810
:100FC000D5F81C0840F00110C5F81C08206B60B172
:100FD000D5F8840840F00B00C5F88408D5F844081B
:100FE00040F00B00C5F844080CE0D5F8140842F2B4
:100FF0002B010843C5F81408D5F8100840F00B0081
:10100000C5F81008D5F8000820F4FE60C5F80008FF
:10101000217C2068009A01F0EDFB2068416901F411
:1010200080514161206801F0BEFD800415D5206823
:1010300001F0B2F9206801F07DFDE06000F07AF97E
:101040000146227B206801F011FE204600F00CF9D9
:101050002068416901F400514161206801F0A3FD5D
:10106000000707D5204600F019F92068416901F012
:1010700008014161206801F096FDC00208D50021F9
:10108000204600F035F82068416901F48011416183
:10109000206801F088FD800208D50021204600F07C
:1010A0002BF82068416901F400114161206801F0CA
:1010B0007AFD400007D52046FFF7E6FC206841692D
:1010C00001F080414161206801F06DFD40070AD5C3
:1010D00020684568680702D52046FFF7ECFC2068C9
:1010E000416829434160BDE8FC9F00000A30544F2D
:1010F000D0F8FC0300F094BED0F8FC0300F092BEE0
:101100002DE9F0418AB0040005D094F8BD032668AB
:10111000002520B108E001200AB0BDE8F08184F884
:10112000BC53204600F05EF8032084F8BD03F06B4A
:10113000C00500D42561206801F0CAFA04F110014D
:10114000282288466846FFF705F994E80F0001F069
:1011500031F90226C8BB0021206801F047FD0020BC
:1011600001270EE0C0EBC00104EB810181F83D7066
:1011700001F83C0FC880CD708D60CD60401CC0B2BE
:101180004D6161688142EDD8002011E0C0EBC001E3
:1011900004EB810181F8FD5181F8FC0181F8FF51D8
:1011A000C1F80452C1F80852401CC0B2C1F8105234
:1011B00061688142EAD8282241466846FFF7CAF8AA
:1011C00094E80F0001F0CAF910B184F8BD63A2E7FA
:1011D00084F8385084F8BD73206801F0B1F900201C
:1011E0009AE7000010B586B0044614216846FFF760
:1011F000E3F82068B0F1A04F2FD119480021026810
:1012000042F001020260006800F0010005904FF416
:10121000C05000900220CDE90101032003900A2074
:10122000049069460F48FFF725FA0D48001D016834
:1012300041F0800101600A481430016841F48041A6
:1012400001600068002200F48040059011464320B0
:10125000FFF7C2FB4320FFF7B1FB06B010BD000053
:10126000303802400000024070B50446C0680125D5
:1012700070B1022801D0FFF7E8F92946D4F8FC0341
:1012800000F025FED4F8FC03BDE8704000F0E1BD9D
:101290000025F2E7D0F8FC0300F003BED0F8FC0311
:1012A00000F009BE10B5044690F8BC0301280BD02D
:1012B000012084F8BC0384F83810206801F0C4FCD5
:1012C000002084F8BC0310BD022010BDD0F8FC2320
:1012D00000F57171104600F006BE10B5044690F896
:1012E000BC0301280CD0012084F8BC03206801F065
:1012F000F9FB206801F016F9002084F8BC0310BD4A
:10130000022010BD10B50446D0F8FC0300F02AFE00
:101310002068D0F8001E41F00101C0F8001E206ACC
:10132000002804D00248016841F00601016010BDA8
:1013300010ED00E001480068704700006C000020DC
:1013400010B5401EB0F1807F01D3012010BD4FF0D9
:10135000E02460610F21601701F011FD0020A06101
:1013600007202061002010BDFEE70000F0B500233B
:101370000A24302537261F4611E000BFB4EB107F4A
:1013800002D905EB107C01E006EB107C01F813C0DC
:1013900001EB430C00015B1C8CF80170DBB2934243
:1013A000ECD3F0BD044908B50A6802430A60096835
:1013B0000140009108BD000030380240014908603A
:1013C000704700006C00002010B500220F49104843
:1013D00000F00CFC08B1FFF738F90E490C4800F09A
:1013E000E7FD08B1FFF731F90B49094800F026FA8B
:1013F00008B1FFF72AF9064800F030FE002803D0B4
:10140000BDE81040FFF721B910BD0000000000202A
:10141000840100204C01002050000020FEE7FEE780
:101420000148FFF757BC0000481600202DE9F041A5
:1014300003680D4604461E6C03EB4511D1F8080BFA
:10144000D4F810E04FF400474FF0200C04F571720F
:10145000BEF1010F09D0DFF898E0764539D10204DA
:1014600032D500BFC1F8087B3FE0224B5FEA007E27
:1014700004D59E4239D90004F4D436E05FEA806E88
:1014800002D5C1F808CB30E010F0280F2DD19E42D4
:1014900001D90004E6D4C5EBC50004EB8000D1F807
:1014A000101BD0F80432C1F31201591AC0F81412FB
:1014B000D0F808121944C0F8081295B9D4F81002EF
:1014C00078B9012120680AE080060AD5C1F808CB66
:1014D00007E035B9D4F8100218B90021184601F018
:1014E00089F9E9B22046FFF7DCFA0020BDE8F08177
:1014F0000A31544F0A30544F2DE9F84F0E46C1EBD4
:10150000C60100EB810481460568D4E914103C341F
:10151000884202D90120BDE8F88F081AA1688142EB
:1015200000D20846C01C870805EB46181BE000BF28
:10153000A0EB010AA068504500D282460AF10300E0
:10154000870899F8100000901FFA8AF3F2B2284633
:10155000E16801F0FFFBE16801EB0A00E060A169CE
:1015600001EB0A00A061D8F8180980B2B84205D38F
:10157000D4E90501814201D20028D9D1D4E905017D
:10158000884208D806F00F0101208840D5F83418A9
:101590008143C5F834180020BDE770477047FFF756
:1015A000B3B900002A4810B5016821F00F0141F0DD
:1015B00003010160016801F00F010329FAD12548F8
:1015C000016841F4803101600168C1F340410029A4
:1015D000FAD02049204A091D0B68204C23401A43A9
:1015E0000A601F4A0B681F4C23401A430A600168B7
:1015F00041F0807101600168C1F340610029FAD0B7
:1016000014480830016821F0F0010160016821F4FC
:10161000E05141F4A0510160016821F4604141F4BE
:1016200000410160016821F0030141F00201016005
:10163000016801F00C010829FAD10B48FFF7BEFE42
:101640000F20FFF783F9002801D072B6FEE710BD26
:10165000003C024000380240143040000080BCFFD3
:10166000143040050080BFF0000E270770472DE9B9
:10167000F041D0F8C032D0F8B822DAB101EB8104E1
:1016800000EB84040025E6694EB1C1EBC10703EB12
:1016900087035B6CB6FBF3F703FB176323B1C2F858
:1016A00014520020BDE8F08100231A46E56100F0E5
:1016B00062FCF6E70220F5E770B50546D0F8B842BF
:1016C00000F06CFBC4F80C02D5F8B80248B1D5F8AC
:1016D000BC12D4F80402CA6804F5037190470020D4
:1016E00070BD022070BD70B504460026812100F057
:1016F0009BFA002501212046E56200F095FA82213F
:101700002046C4F86C5100F08FFA2564D4F8B80272
:1017100048B1D4F8BC0204F52E74406880472068B4
:10172000FEF7F1FD2560304670BD10B5D0E9AE4141
:1017300059B194F80002FF2807D08B6894F8012271
:1017400021469847FF2084F80002002010BD0000C9
:101750000A21018000487047740000204321018065
:1017600000487047C40000204321018000487047B2
:1017700080000020432101800048704708010020BC
:101780002DE9F04104460026007C4FF40077012546
:1017900090B3402302228121204600F045FB4023E4
:1017A000E56202220121204600F03EFB08230322CD
:1017B00082212046C4F86C5100F036FB4FF40770CC
:1017C0002564FEF771FDC4F8B802F8B10546D4F8F7
:1017D000BC02006880470020C5F81402C5F8180252
:1017E000207CD5F8042298B140230121204600F046
:1017F00027FB3046BDE8F081FFE73B46022281210E
:10180000204600F011FB3B46E562CAE70126F0E7FF
:101810003B46EAE710B5D0F8B81269B1027C002A5D
:10182000D1F8042205D04023012100F009FB00205B
:1018300010BD4FF40073F7E7022010BD02460220EE
:10184000002902D00020C2F8BC127047D0F8B802BC
:10185000C0F8041200207047D0F8B802C0F8102277
:10186000C0F80812002070472DE9FC410546D0F869
:10187000B87200208DF80000ADF804000646087824
:101880000C4610F0600121D020293BD1E288AAB19A
:101890000006607807D5D5F8BC128B6839469847A2
:1018A000E288394626E087F80002A07987F801022D
:1018B000E2883946284600F04FF828E0D5F8BC12F7
:1018C000607800228B682146984720E0607820B13C
:1018D0000A2809D00B2815D110E095F89C0203289E
:1018E00010D1022201A905E095F89C02032809D134
:1018F00001226946284600F049F808E095F89C0264
:10190000032804D02146284600F01BF80226304662
:10191000BDE8FC8110B5D0F8B42252689047002091
:1019200010BD134610B50A46002100F089FA0020C8
:1019300010BD134610B50A46002100F01CFB002024
:1019400010BD10B50446802100F0FAFA2046BDE82B
:101950001040002100F0F4BA10B50323C0F85C2158
:10196000C0F89432C0F8602113460A46002100F006
:1019700067FA002010BD10B505210023C0F89412AD
:101980001A46194600F05CFA002010BD10B502237B
:10199000C261C0F89432026213460A46002100F088
:1019A000EAFA002010BD10B504210023C0F89412FB
:1019B0001A46194600F0DFFA002010BD10B50A469D
:1019C000024903A000F0E2F8004810BD48040020DE
:1019D00043444320436F6E6669670000122008800D
:1019E000004870472000002010B50A46024903A0B5
:1019F00000F0CCF8004810BD4804002043444320C8
:101A0000496E746572666163650000000420088099
:101A1000004870471C00002010B50A46024903A088
:101A200000F0B4F8004810BD4804002053544D693C
:101A300063726F656C656374726F6E6963730000C7
:101A400010B50A46024903A000F0A0F8004810BDF6
:101A50004804002053544D33322056697274756126
:101A60006C20436F6D506F727400000010B51A2027
:101A700008800A480168001D0468001D00680818F5
:101A800009D008220649FFF771FC054904221031EC
:101A90002046FFF76BFC0248801E10BD107AFF1F26
:101AA00036000020F8B504460020ADF80000488854
:101AB0000D46010A082948D2DFE801F0470409175A
:101AC00047473C45D4F8B012207C0A6819E0207CD6
:101AD00002260028D4F8B40205D0C16A68468847B7
:101AE000014646703EE0816AF8E7C0B206282CD273
:101AF000DFE800F0030A1014181CD4F8B0024268A2
:101B000005E0694690471CE0D4F8B0028268E2B173
:101B1000207CF6E7D4F8B002C268F8E7D4F8B00247
:101B20000269F4E7D4F8B0024269F0E7D4F8B002F1
:101B30008269ECE7207C40B9D4F8B402416B684676
:101B4000884701460EE0207C20B129462046FFF759
:101B5000F8FEF8BDD4F8B402016B68468847014628
:101B600007204870BDF8000048B1EA8852B18242AF
:101B700000D90246ADF800202046FFF707FFE888AD
:101B80000028E6D12046FFF70EFFF8BD70B5002310
:101B900000281ED00446002502E06D1CEDB2641C36
:101BA0002678002EF9D1022404EB45041480127823
:101BB000CA545B1C0322CA5400245B1C06E0CA54AE
:101BC0005B1CDAB28C54521CD3B2401C0278002A3F
:101BD000F5D170BD01004FF0000004D0012901D003
:101BE000022901D0022070470120704710B580B152
:101BF000D0F8B43213B10023C0F8B43209B1C0F840
:101C0000B012012180F89C12027000F0CBF8002085
:101C100010BD022010BD10B5D0F8C002FEF775FF50
:101C2000BDE81040FFF7D6BF10B5D0F8C002FEF7F0
:101C300046FFBDE81040FFF7CDBF2DE9F041174644
:101C4000044651B1D4F8B40242691AB194F89C0226
:101C5000032851D00220BDE8F081D4F89432002549
:101C600004F11400022B03D0042B3AD0C3B33CE0A0
:101C7000D0E903639E4207D9F11AC1608AB239469E
:101C80002046FFF756FE12E08068B0FBF3F103FB3D
:101C9000110199B9984211D3D4F8981288420DD203
:101CA000002211462046FFF744FEC4F89852002354
:101CB0001A461946204600F0C3F816E0D4F8B402DC
:101CC000C16829B194F89C02032801D120468847B5
:101CD0008021204600F034F92046FFF74CFE04E056
:101CE000FFE78021204600F02BF994F8A00201289C
:101CF00004D184F8A05201E0204690470020AAE7D2
:101D000070B51546044649B1D4F8B40282691AB1D7
:101D100094F89C02032830D0022070BDD4F89412AD
:101D200004F5AA70032902D005291ED027E0D0E9C6
:101D300003218A420BD9531AC3600846834200D359
:101D400003469AB229462046FFF7EBFD17E0D4F888
:101D5000B402016929B194F89C02032801D12046FC
:101D600088472046FFF71FFE09E000200146C4F81F
:101D70009402204600F0E4F801E02046904700205D
:101D800070BD0020704710B5012180F89C12D0F87A
:101D9000B422017952689047002010BDD0F8C002EB
:101DA000FEF7E1BE10B5017831BB14490222C1F83B
:101DB000FC03C0F8C0124FF0A04008600420486047
:101DC0000020C1E90320C1E906200862C862086357
:101DD0000846FFF795F908B1FEF737FC8021074860
:101DE000FEF72CFE402200210448FEF72BFE802245
:101DF00001210248FEF726FE002010BD48160020F3
:101E00000A0601F07F01D0F8C002C1EBC10100EB6E
:101E1000810002D590F83E00704790F8FE017047AF
:101E2000002070470020704710B51C461346D0F8BC
:101E3000C0022246FEF7A0FEBDE81040FFF7CABE72
:101E400010B5D0F8C002FEF7C7FEBDE81040FFF79E
:101E5000C1BE70B50022044640231146FFF7E4FFDF
:101E600040260125C4F864613346002280212046C3
:101E7000C4F85851FFF7D8FF6662A56184F89C52F8
:101E80000020C4F894026060C4F8A402D4F8B80238
:101E900028B1D4F8B40200214268204690470020BF
:101EA00070BD90F89C12042903D190F89D1280F81F
:101EB0009C120020704710B590F89C12032904D1A1
:101EC000D0F8B412C96901B18847002010BD01746F
:101ED0000020704710B5D0F8C002FFF7E3F9BDE865
:101EE0001040FFF777BE70B5044600F52A7005462E
:101EF00000F04AF80120C4F89402B4F8AE02C4F825
:101F0000980294F8A80210F01F010AD001290DD000
:101F1000022910D000F08001204600F011F80020C6
:101F200070BD2946204600F09EF8F8E72946204675
:101F300000F0CAF9F3E72946204600F01DF9EEE764
:101F400010B5D0F8C002FEF76BFEBDE81040FFF7F9
:101F500041BE10B5D0F8C002FFF7BFF9BDE8104090
:101F6000FFF738BE90F89C1280F89D12042180F88B
:101F70009C120020704710B5D0F8C002FEF78AFE10
:101F8000BDE81040FFF726BE0A7802704A7842701A
:101F90008A78CB7802EB032242800A794B7902EBF4
:101FA000032282808A79C97902EB0121C1807047BE
:101FB0000246002011B1C2F8B412704702207047E7
:101FC00010B5D0F8B42202241AB11268904700B9B3
:101FD0000024204610BD000070B50E461E4D8978C5
:101FE00004462970012931D894F89C0202280BD0AC
:101FF00003280FD031462046FFF7A3FC297820465E
:10200000BDE87040FFF786BCD9B10320616084F859
:102010009C0209E071B16068884212D0C1B22046CA
:10202000FFF778FC297861602046FFF7C9FF022896
:102030000CD006E0022084F89C0220466160FFF785
:1020400069FC2046BDE87040FFF7ADBC3146204634
:10205000BDE87040FFF775BC7000002010B5FFF7B9
:1020600078FF002010BD2DE9F0410A78002612F01B
:10207000600208D0202A01D0402A70D1D0F8B422C2
:10208000926890476DE04B78002201250A2B66D2BA
:10209000DFE803F0405D6557650805652C29FFF70B
:1020A00001FD5EE004468888D8B9C888C8B9488868
:1020B000802816D200F07F0794F89C02032810D0E5
:1020C00084F89E7239462046FFF704FF2046FFF74A
:1020D0006AFC1FB1022084F89C0242E084F89C5202
:1020E0003FE020463BE0FFF777FF3AE0CB88012B4B
:1020F00035D190F89C32012B04D0022B02D0032B57
:102100002DD104E08260012200F1080116E00122D5
:10211000011D13E090F89C22012A03D0022A01D06D
:10212000032A1CD1CA88022A19D1C560D0F8A4128A
:1021300009B10321C160022200F10C01FFF726FC66
:102140000FE0498801290CD1C0F8A45211E090F8A1
:102150009C32012B08D0022B06D0032B04D0FFF7B2
:10216000F0FB3046BDE8F08149880129F9D1C0F87B
:10217000A422FFF718FCF4E72DE9F0410A460446D3
:1021800010780027097910F060030AD0202B01D0C5
:10219000402B50D1D4F8B4021146836820469847AA
:1021A0008FE0C0F34110012806D05078D0B3012849
:1021B0002AD003283FD107E0D4F8B402114683683F
:1021C0002046BDE8F041184794F89C02022802D04E
:1021D000032872D10AE071B380296ED02046FFF740
:1021E000AFFE80212046FFF7ABFE6AE0508838B989
:1021F00031B1802904D0D08810B92046FFF7A0FE65
:102200002046FFF7D0FB5CE094F89C020228E2D065
:10221000032852D1508898BB4806F1D02046FFF7DA
:10222000FAFCEDE7FFE794F89C020026022803D0B1
:10223000032842D112E040E009B180293DD10806CF
:1022400001F07F0000EB800004EB800101D5143128
:1022500001E001F5AA7102220E602AE0080601F0F1
:102260000F0000EB800004EB80000AD5806920B3EA
:1022700001F07F0000EB800004EB800514350BE0DB
:102280001FE0D0F85801C0B101F07F0000EB8000E2
:1022900004EB800505F5AA7541B1802906D02046DA
:1022A000FFF7AEFD10B10120286000E02E60022291
:1022B00029462046FFF76AFB03E011462046FFF758
:1022C00040FB3846BDE8F08170B5054608780C46FD
:1022D00010F0600003D0202801D0402816D195F8D6
:1022E0009C02012803D0022801D003280ED12079B6
:1022F00001280BD8D5F8B402826828469047E188B7
:10230000014306D12846FFF74EFB02E02846FFF7BF
:1023100018FB002070BD000070B50A78012302F0A0
:102320000F054E78AB401B4CD0F81C58012E17D02F
:1023300045EA0343C0F81C3800EB4210D0F8002BEC
:1023400012040BD4D0F8002B0B89C978C3F30A030D
:102350001A4344EA81410A43C0F8002B002070BDB3
:102360009BB21D43C0F81C5800EB4210D0F8003956
:102370001B04F3D4D0F800390D89C978C5F30A05D8
:1023800089042B4341EA82510B432343C0F80039AF
:10239000E4E7000000800010D0F800196FF30A0194
:1023A000C0F80019D0F8041841F48071C0F804187E
:1023B0000020704770B504460699049D0D980129C8
:1023C00015D0E06840F04000E060204600F028F8BA
:1023D000A16B41F48031A163012D07D1A16841F0C7
:1023E0000601A160A16841F02001A16070BDA16B50
:1023F00021F48031A163E168084A1140E160E1689D
:1024000021F44011E160012803D1E06840F480101C
:10241000E060204600F004F8DEE70000BFFFBDFFEB
:1024200001220C4902E0521C8A420BD80369002B9E
:10243000F9DA026942F001020261012204E0521C51
:102440008A4201D9032070470369DB07F7D10020D6
:1024500070470000400D030030B54C780A78012326
:1024600000EB4212012C2CD0D2F8004B002C0BDADE
:10247000D2F8004B44F00064C2F8004BD2F8004B95
:1024800044F08044C2F8004BD0F83C580C7804F07B
:102490000F0403FA04F425EA0444C0F83C48D0F8D9
:1024A0001C48097801F00F018B4024EA0341C0F871
:1024B0001C18D2F8000B19490840C2F8000B002084
:1024C00030BDD2F80049002C0BDAD2F8004944F0B4
:1024D0000064C2F80049D2F8004944F08044C2F8D0
:1024E0000049D0F83C480D7805F00F0503FA05F5D2
:1024F000ADB2AC43C0F83C48D0F81C48097801F0B4
:102500000F018B4099B28C43C0F81C48D2F80009E7
:1025100003490840C2F80009D1E700000078F3EF52
:10252000007833ECD0F8001E21F00301C0F8001E43
:10253000D0F8041821F00201C0F8041800207047F8
:10254000D0F8001E21F00301C0F8001ED0F80418D6
:1025500041F00201C0F80418002070472DE9F04F47
:1025600000250E460446DDF82CC0DDF824B0109F8F
:102570002846294604EB8002C2F80411401C0F28AB
:10258000F8D32046C7B1806B20F40012A263A06B81
:1025900040F40022A26308468846C4F8000ED4F82E
:1025A00000182046C4F80018BCF1010F16D0D0F86E
:1025B000001841F0030116E0D0F8040840F00202D0
:1025C000C4F80428A06B40F40012A263A06B20F4AE
:1025D0000022A263A06B20F48022DBE7D0F8001871
:1025E0000BB141F00101C0F80018102100F090FA81
:1025F00000B10125204600F07BFA00B101254046DC
:10260000C4F81088C4F81488C4F81C8800214FF05E
:1026100000694FF0904A4FF67F3314E004EB41120B
:10262000D2F800C9BCF1000F06DA11B1C2F800A956
:1026300004E0C4F8009901E0C2F80009C2F81009EA
:10264000C2F80839491C8E42E8D8002115E000BFC5
:1026500004EB4112D2F800CBBCF1000F06DA11B145
:10266000C2F800AB04E0C4F8009B01E0C2F8000B24
:10267000C2F8100BC2F8083B491C8E42E8D8D4F8C7
:10268000101821F48072C4F81028A0616FF0804007
:102690006061BBF1000F03D1A06940F01000A061A0
:1026A000A06909490843A0610C9818B1A06940F0DD
:1026B0000800A061012F03D1A06904490843A0616B
:1026C0002846BDE8F08F000000383C800400004040
:1026D000816821F0010181600020704770B50D789C
:1026E0004E78434CEBB200EB4313012E1FD0D3F8CE
:1026F000100B6FF31200C3F8100BD3F8100B20402F
:10270000C3F8100B486908B188684861D3F8100B0A
:1027100040F40020C3F8100BD3F8100B8C68C4F3FE
:1027200012042043C3F8100B012A55D058E04E691B
:10273000002ED3F8106932D06FF31206C3F8106977
:10274000D3F810692640C3F810694E698C68A64218
:1027500000D94C61D3F8104944F40024C3F810495F
:10276000D3F810494E69C6F312063443C3F8104932
:10277000012A22D000EB4512D2F8003943F004437D
:10278000C2F800394A6932B3D0F83428097801F028
:102790000F03012199400A43C0F8342826E026405F
:1027A000C3F81069D3F8104944F40024C3F8104961
:1027B000D3F810496FF31204D8E7096919B100EB97
:1027C0004512C2F8141900EB4510D0F8001941F079
:1027D0000441C0F8001909E0C86808B1C3F8140B37
:1027E000D3F8000B40F00440C3F8000B002070BD8C
:1027F000FFFF07E010B5036C134CA34203D9D0F8D8
:10280000003B002B1EDB0023C0F8103BD0F8103B30
:1028100043F40023C0F8103BD0F8103B43F01803FA
:10282000C0F8103BD0F8103B43F0C043C0F8103B59
:10283000012907D1C0F8142BD0F8001B41F08021EA
:10284000C0F8001B002010BD0A30544F4A780B78A6
:10285000012A00EB43100BD0D0F8002B22F4001219
:10286000C0F8002BC978032914D0022912D017E030
:10287000D0F8002922F40012C0F80029C9780329F1
:1028800001D002290CD1D0F8001941F08051C0F8D4
:10289000001905E0D0F8001B41F08051C0F8001B82
:1028A000002070470A784B78D1B200EB4110012B21
:1028B00012D0D0F8001B002906DB2AB1D0F8001B8B
:1028C00021F08041C0F8001BD0F8001B41F400113A
:1028D000C0F8001B00207047D0F80019002906DB63
:1028E0002AB1D0F8001921F08041C0F80019D0F8C1
:1028F000001941F40011C0F80019EBE7F8B50C78A5
:102900004F78774DE3B26FF0604600EB4313012F31
:1029100026D0D3F8104B6FF31204C3F8104BD3F842
:10292000104B2C40C3F8104B4C69002C74D08D68B0
:102930002C44641EB4FBF5F4D3F8105BA4B206EA91
:10294000C4463543C3F8105BD3F8105B8E6866430A
:10295000C6F312042543C3F8105B012A71D0A6E028
:102960004F691FB3D3F810796FF31207C3F81079CA
:10297000D3F810792F40C3F810794F698D682F4430
:102980007F1EB7FBF5F506EAC545D3F81069354358
:10299000C3F81059D3F810594E69C6F312063543DF
:1029A000C3F81059CD78012D10D01BE0D3F8106971
:1029B0002E40C3F81069D3F8105945F40025C3F828
:1029C0001059D3F810596FF3120509E0D3F81059D4
:1029D00025F0C045C3F81059D3F8105945F00055FB
:1029E000C3F81059012A18D000EB4413D3F800495A
:1029F00044F00444C3F80049CC78012C2FD04A6934
:102A000062B3D0F83428097801F00F03012199400E
:102A10000A43C0F8342860E036E00A691AB100EBD6
:102A20004413C3F81429C97801290FD1D0F8081824
:102A3000C90500EB4411D1F8002903D442F000523B
:102A400002E030E042F08052C1F8002900EB44106F
:102A5000D0F8001941F00441C0F800193DE0D0F869
:102A60000848E405D3F8004902D444F0005401E0DA
:102A700044F08054C3F8004900928A8A93B20A78DD
:102A8000C96800F067F928E0D3F8104B8D68C5F3EA
:102A900012052C43C3F8104BD3F8104B44F4002418
:102AA000C3F8104B59E7CA680AB1C3F8142BC978A8
:102AB00001290CD1D0F80808C005D3F8000B02D4C6
:102AC00040F0005001E040F08050C3F8000BD3F814
:102AD000000B40F00440C3F8000B0020F8BD0000DC
:102AE000FFFF07E0816841F001018160002070472D
:102AF000002110220261054A491C914201D903209C
:102B000070470369DB06F7D400207047400D0300CF
:102B10000022202343EA811101610549521C8A42A7
:102B200001D90320704703699B06F7D40020704742
:102B3000400D0300D0F8080810F0060004D0022869
:102B400003D0062801D00F2070470220704740694B
:102B500000F001007047D0F81818D0F81C080840A1
:102B600080B27047D0F81818D0F81C080840000C44
:102B7000704710B5D0F81038D0F8342801F00F04A1
:102B800000EB4110E24002F00102D0F8080943EAEC
:102B9000C212104010BD00EB4111D1F8081BD0F853
:102BA000140808407047416980690840704730B593
:102BB00003460846940802F00301002203F58053FF
:102BC00003E01D6840F8045B521CA242F9D30029BF
:102BD0000BD01C680022D50024FA05F3491E521CB4
:102BE000090400F8013B090CF5D130BD70B504466D
:102BF000C068002520F0C040E060012901D079B113
:102C000020E0E06840F00050E0600120FDF720FD8A
:102C100060696D1C10F0010F10D1322DF5D30DE05D
:102C2000E06840F08040E0600120FDF711FD606940
:102C30006D1C10F0010F01D0322DF5D3322D01D0D3
:102C4000002070BD012070BDD0F8002822F4FE6283
:102C5000C0F80028D0F800284FF4FE6303EA011101
:102C60000A43C0F80028002070470000022A3ED125
:102C7000264A274B0A449A4201D20F2138E0254ABE
:102C8000254B0A449A4201D20E2131E0234A244BBB
:102C90000A449A4201D20D212AE0224A224B0A44D8
:102CA0009A4201D20C2123E0204A214B0A449A4245
:102CB00001D20B211CE01F4A1F4B0A449A4201D249
:102CC0000A2115E01D4A1E4B0A449A420FD31D4AA1
:102CD0001D4B0A449A4201D2082109E01B4A1144C3
:102CE0001B4A914201D2072102E0062100E009219E
:102CF000C26822F47052C260C2684FF4705303EA93
:102D000081210A43C260002070470000405327FF22
:102D100000350C00401E1BFF40420F0000DC0BFF83
:102D2000804F1200808CF9FE20D6130060B6E5FEBD
:102D300060E3160000D3CEFE40771B00C05BB3FEFD
:102D4000C091210000CA91FE20753800E05459FE60
:102D5000E09C410010B5029C74B9DB1C9C0800EBA0
:102D60000230002300F5805004E000BF51F8042B2E
:102D700002605B1CA342F9D3002010BDFEE70907E7
:102D8000090E002804DB00F1E02080F800147047F1
:102D900000F00F0000F1E02080F8141D7047FDF7EF
:102DA000BBFDFEF7FFFB8020FEF7FCFA0120FEF7DB
:102DB000F9FAFEF709FBFEE7D82D00080000002015
:102DC00084010000C0010008982E00088401002042
:102DD000247900001C02000813DD1914080D1A1BC9
:102DE0000819041A41041A6D041ABD141AE90417CB
:102DF000040309041201140202021640830440571E
:102E0000260201020301031A1A03130D061B080709
:102E1000041A03041A3104192F1182105324F413D5
:102E20000A0632022A401C1C090243571125C032EF
:102E300009041B01020B13052416100105240110BF
:102E4000090104240202052406170107058203086C
:102E50001C1009048D320A1D07050102432C0705C9
:102E600081070938442A40072A8107112B090744A2
:102E70000A3B04441381171408E716140869184222
:102E8000081A2B101A6F101AB904C11A69181A5DA2
:082E9000041A75041A51040034
:040000050800018569
:00000001FF
